{
    "contractName": "ERC20Token",
    "abi": [
        {
            "inputs": [
                {
                    "internalType": "uint256",
                    "name": "_initialAmount",
                    "type": "uint256"
                },
                {
                    "internalType": "string",
                    "name": "_tokenName",
                    "type": "string"
                },
                {
                    "internalType": "uint8",
                    "name": "_decimalUnits",
                    "type": "uint8"
                },
                {
                    "internalType": "string",
                    "name": "_tokenSymbol",
                    "type": "string"
                }
            ],
            "stateMutability": "nonpayable",
            "type": "constructor"
        },
        {
            "anonymous": false,
            "inputs": [
                {
                    "indexed": true,
                    "internalType": "address",
                    "name": "tokenOwner",
                    "type": "address"
                },
                {
                    "indexed": true,
                    "internalType": "address",
                    "name": "spender",
                    "type": "address"
                },
                {
                    "indexed": false,
                    "internalType": "uint256",
                    "name": "tokens",
                    "type": "uint256"
                }
            ],
            "name": "Approval",
            "type": "event"
        },
        {
            "anonymous": false,
            "inputs": [
                {
                    "indexed": true,
                    "internalType": "address",
                    "name": "from",
                    "type": "address"
                },
                {
                    "indexed": true,
                    "internalType": "address",
                    "name": "to",
                    "type": "address"
                },
                {
                    "indexed": false,
                    "internalType": "uint256",
                    "name": "tokens",
                    "type": "uint256"
                }
            ],
            "name": "Transfer",
            "type": "event"
        },
        {
            "inputs": [
                {
                    "internalType": "address",
                    "name": "_owner",
                    "type": "address"
                },
                {
                    "internalType": "address",
                    "name": "_spender",
                    "type": "address"
                }
            ],
            "name": "allowance",
            "outputs": [
                {
                    "internalType": "uint256",
                    "name": "remaining",
                    "type": "uint256"
                }
            ],
            "stateMutability": "view",
            "type": "function"
        },
        {
            "inputs": [
                {
                    "internalType": "address",
                    "name": "",
                    "type": "address"
                },
                {
                    "internalType": "address",
                    "name": "",
                    "type": "address"
                }
            ],
            "name": "allowed",
            "outputs": [
                {
                    "internalType": "uint256",
                    "name": "",
                    "type": "uint256"
                }
            ],
            "stateMutability": "view",
            "type": "function"
        },
        {
            "inputs": [
                {
                    "internalType": "address",
                    "name": "_spender",
                    "type": "address"
                },
                {
                    "internalType": "uint256",
                    "name": "_value",
                    "type": "uint256"
                }
            ],
            "name": "approve",
            "outputs": [
                {
                    "internalType": "bool",
                    "name": "success",
                    "type": "bool"
                }
            ],
            "stateMutability": "nonpayable",
            "type": "function"
        },
        {
            "inputs": [
                {
                    "internalType": "address",
                    "name": "_owner",
                    "type": "address"
                }
            ],
            "name": "balanceOf",
            "outputs": [
                {
                    "internalType": "uint256",
                    "name": "balance",
                    "type": "uint256"
                }
            ],
            "stateMutability": "view",
            "type": "function"
        },
        {
            "inputs": [
                {
                    "internalType": "address",
                    "name": "",
                    "type": "address"
                }
            ],
            "name": "balances",
            "outputs": [
                {
                    "internalType": "uint256",
                    "name": "",
                    "type": "uint256"
                }
            ],
            "stateMutability": "view",
            "type": "function"
        },
        {
            "inputs": [],
            "name": "decimals",
            "outputs": [
                {
                    "internalType": "uint8",
                    "name": "",
                    "type": "uint8"
                }
            ],
            "stateMutability": "view",
            "type": "function"
        },
        {
            "inputs": [],
            "name": "name",
            "outputs": [
                {
                    "internalType": "string",
                    "name": "",
                    "type": "string"
                }
            ],
            "stateMutability": "view",
            "type": "function"
        },
        {
            "inputs": [],
            "name": "symbol",
            "outputs": [
                {
                    "internalType": "string",
                    "name": "",
                    "type": "string"
                }
            ],
            "stateMutability": "view",
            "type": "function"
        },
        {
            "inputs": [],
            "name": "totSupply",
            "outputs": [
                {
                    "internalType": "uint256",
                    "name": "",
                    "type": "uint256"
                }
            ],
            "stateMutability": "view",
            "type": "function"
        },
        {
            "inputs": [],
            "name": "totalSupply",
            "outputs": [
                {
                    "internalType": "uint256",
                    "name": "totSupp",
                    "type": "uint256"
                }
            ],
            "stateMutability": "view",
            "type": "function"
        },
        {
            "inputs": [
                {
                    "internalType": "address",
                    "name": "_to",
                    "type": "address"
                },
                {
                    "internalType": "uint256",
                    "name": "_value",
                    "type": "uint256"
                }
            ],
            "name": "transfer",
            "outputs": [
                {
                    "internalType": "bool",
                    "name": "success",
                    "type": "bool"
                }
            ],
            "stateMutability": "nonpayable",
            "type": "function"
        },
        {
            "inputs": [
                {
                    "internalType": "address",
                    "name": "_from",
                    "type": "address"
                },
                {
                    "internalType": "address",
                    "name": "_to",
                    "type": "address"
                },
                {
                    "internalType": "uint256",
                    "name": "_value",
                    "type": "uint256"
                }
            ],
            "name": "transferFrom",
            "outputs": [
                {
                    "internalType": "bool",
                    "name": "success",
                    "type": "bool"
                }
            ],
            "stateMutability": "nonpayable",
            "type": "function"
        }
    ],
    "bytecode": "608060405234801562000010575f80fd5b5060405162000a8838038062000a8883398101604081905262000033916200013e565b335f9081526020819052604090208490556002849055600362000057848262000253565b506004805460ff191660ff8416179055600562000075828262000253565b50505050506200031b565b634e487b7160e01b5f52604160045260245ffd5b5f82601f830112620000a4575f80fd5b81516001600160401b0380821115620000c157620000c162000080565b604051601f8301601f19908116603f01168101908282118183101715620000ec57620000ec62000080565b8160405283815260209250868385880101111562000108575f80fd5b5f91505b838210156200012b57858201830151818301840152908201906200010c565b5f93810190920192909252949350505050565b5f805f806080858703121562000152575f80fd5b845160208601519094506001600160401b038082111562000171575f80fd5b6200017f8883890162000094565b94506040870151915060ff8216821462000197575f80fd5b606087015191935080821115620001ac575f80fd5b50620001bb8782880162000094565b91505092959194509250565b600181811c90821680620001dc57607f821691505b602082108103620001fb57634e487b7160e01b5f52602260045260245ffd5b50919050565b601f8211156200024e575f81815260208120601f850160051c81016020861015620002295750805b601f850160051c820191505b818110156200024a5782815560010162000235565b5050505b505050565b81516001600160401b038111156200026f576200026f62000080565b6200028781620002808454620001c7565b8462000201565b602080601f831160018114620002bd575f8415620002a55750858301515b5f19600386901b1c1916600185901b1785556200024a565b5f85815260208120601f198616915b82811015620002ed57888601518255948401946001909101908401620002cc565b50858210156200030b57878501515f19600388901b60f8161c191681555b5050505050600190811b01905550565b61075f80620003295f395ff3fe608060405234801561000f575f80fd5b50600436106100b1575f3560e01c80635c6581651161006e5780635c6581651461015957806370a082311461018357806381fbf0a5146101ab57806395d89b41146101b4578063a9059cbb146101bc578063dd62ed3e146101cf575f80fd5b806306fdde03146100b5578063095ea7b3146100d357806318160ddd146100f657806323b872dd1461010857806327e235e31461011b578063313ce5671461013a575b5f80fd5b6100bd610207565b6040516100ca919061059f565b60405180910390f35b6100e66100e1366004610605565b610293565b60405190151581526020016100ca565b6002545b6040519081526020016100ca565b6100e661011636600461062d565b6102ff565b6100fa610129366004610666565b5f6020819052908152604090205481565b6004546101479060ff1681565b60405160ff90911681526020016100ca565b6100fa610167366004610686565b600160209081525f928352604080842090915290825290205481565b6100fa610191366004610666565b6001600160a01b03165f9081526020819052604090205490565b6100fa60025481565b6100bd610498565b6100e66101ca366004610605565b6104a5565b6100fa6101dd366004610686565b6001600160a01b039182165f90815260016020908152604080832093909416825291909152205490565b60038054610214906106b7565b80601f0160208091040260200160405190810160405280929190818152602001828054610240906106b7565b801561028b5780601f106102625761010080835404028352916020019161028b565b820191905f5260205f20905b81548152906001019060200180831161026e57829003601f168201915b505050505081565b335f8181526001602090815260408083206001600160a01b038716808552925280832085905551919290917f8c5be1e5ebec7d5bd14f71427d1e84f3dd0314c0f7b2291e5b200ac8c7c3b925906102ed9086815260200190565b60405180910390a35060015b92915050565b6001600160a01b0383165f81815260016020908152604080832033845282528083205493835290829052812054909190831180159061033e5750828110155b6103a75760405162461bcd60e51b815260206004820152602f60248201527f496e73756666696369656e7420616c6c6f7765642066756e647320666f72207460448201526e3930b739b332b91039b7bab931b29760891b60648201526084015b60405180910390fd5b6001600160a01b0384165f90815260208190526040812080548592906103ce908490610703565b90915550506001600160a01b0385165f90815260208190526040812080548592906103fa908490610716565b90915550505f19811015610440576001600160a01b0385165f9081526001602090815260408083203384529091528120805485929061043a908490610716565b90915550505b836001600160a01b0316856001600160a01b03167fddf252ad1be2c89b69c2b068fc378daa952ba7f163c4a11628f55a4df523b3ef8560405161048591815260200190565b60405180910390a3506001949350505050565b60058054610214906106b7565b335f908152602081905260408120548211156105135760405162461bcd60e51b815260206004820152602760248201527f496e73756666696369656e742066756e647320666f72207472616e736665722060448201526639b7bab931b29760c91b606482015260840161039e565b335f9081526020819052604081208054849290610531908490610716565b90915550506001600160a01b0383165f908152602081905260408120805484929061055d908490610703565b90915550506040518281526001600160a01b0384169033907fddf252ad1be2c89b69c2b068fc378daa952ba7f163c4a11628f55a4df523b3ef906020016102ed565b5f6020808352835180828501525f5b818110156105ca578581018301518582016040015282016105ae565b505f604082860101526040601f19601f8301168501019250505092915050565b80356001600160a01b0381168114610600575f80fd5b919050565b5f8060408385031215610616575f80fd5b61061f836105ea565b946020939093013593505050565b5f805f6060848603121561063f575f80fd5b610648846105ea565b9250610656602085016105ea565b9150604084013590509250925092565b5f60208284031215610676575f80fd5b61067f826105ea565b9392505050565b5f8060408385031215610697575f80fd5b6106a0836105ea565b91506106ae602084016105ea565b90509250929050565b600181811c908216806106cb57607f821691505b6020821081036106e957634e487b7160e01b5f52602260045260245ffd5b50919050565b634e487b7160e01b5f52601160045260245ffd5b808201808211156102f9576102f96106ef565b818103818111156102f9576102f96106ef56fea264697066735822122035bb417e938db04b9b0b91aacc486414f32fe0871f2bc20f679909dfcca6244964736f6c63430008140033",
    "sourcePath": "/Users/sidharth/Desktop/blockchainProject/contracts/erc20token.sol",
    "compiler": {
        "name": "solc",
        "version": "0.8.20+commit.a1b79de6"
    },
    "functionHashes": {
        "allowance(address,address)": "dd62ed3e",
        "allowed(address,address)": "5c658165",
        "approve(address,uint256)": "095ea7b3",
        "balanceOf(address)": "70a08231",
        "balances(address)": "27e235e3",
        "decimals()": "313ce567",
        "name()": "06fdde03",
        "symbol()": "95d89b41",
        "totSupply()": "81fbf0a5",
        "totalSupply()": "18160ddd",
        "transfer(address,uint256)": "a9059cbb",
        "transferFrom(address,address,uint256)": "23b872dd"
    },
    "gasEstimates": {
        "creation": {
            "codeDepositCost": "377400",
            "executionCost": "infinite",
            "totalCost": "infinite"
        },
        "external": {
            "allowance(address,address)": "infinite",
            "allowed(address,address)": "infinite",
            "approve(address,uint256)": "24520",
            "balanceOf(address)": "2559",
            "balances(address)": "2608",
            "decimals()": "2423",
            "name()": "infinite",
            "symbol()": "infinite",
            "totSupply()": "2338",
            "totalSupply()": "2325",
            "transfer(address,uint256)": "infinite",
            "transferFrom(address,address,uint256)": "infinite"
        }
    }
}