{
    "contractName": "supplyChain",
    "abi": [
        {
            "anonymous": false,
            "inputs": [
                {
                    "indexed": false,
                    "internalType": "uint32",
                    "name": "productId",
                    "type": "uint32"
                }
            ],
            "name": "TransferOwnership",
            "type": "event"
        },
        {
            "inputs": [
                {
                    "internalType": "string",
                    "name": "_name",
                    "type": "string"
                },
                {
                    "internalType": "string",
                    "name": "_pass",
                    "type": "string"
                },
                {
                    "internalType": "address",
                    "name": "_pAdd",
                    "type": "address"
                },
                {
                    "internalType": "string",
                    "name": "_pType",
                    "type": "string"
                }
            ],
            "name": "addParticipant",
            "outputs": [
                {
                    "internalType": "uint32",
                    "name": "",
                    "type": "uint32"
                }
            ],
            "stateMutability": "nonpayable",
            "type": "function"
        },
        {
            "inputs": [
                {
                    "internalType": "uint32",
                    "name": "_ownerId",
                    "type": "uint32"
                },
                {
                    "internalType": "string",
                    "name": "_modelNumber",
                    "type": "string"
                },
                {
                    "internalType": "string",
                    "name": "_partNumber",
                    "type": "string"
                },
                {
                    "internalType": "string",
                    "name": "_serialNumber",
                    "type": "string"
                },
                {
                    "internalType": "uint32",
                    "name": "_productCost",
                    "type": "uint32"
                }
            ],
            "name": "addProduct",
            "outputs": [
                {
                    "internalType": "uint32",
                    "name": "",
                    "type": "uint32"
                }
            ],
            "stateMutability": "nonpayable",
            "type": "function"
        },
        {
            "inputs": [
                {
                    "internalType": "uint32",
                    "name": "_uid",
                    "type": "uint32"
                },
                {
                    "internalType": "string",
                    "name": "_uname",
                    "type": "string"
                },
                {
                    "internalType": "string",
                    "name": "_pass",
                    "type": "string"
                },
                {
                    "internalType": "string",
                    "name": "_utype",
                    "type": "string"
                }
            ],
            "name": "authenticateParticipant",
            "outputs": [
                {
                    "internalType": "bool",
                    "name": "",
                    "type": "bool"
                }
            ],
            "stateMutability": "view",
            "type": "function"
        },
        {
            "inputs": [
                {
                    "internalType": "uint32",
                    "name": "_regId",
                    "type": "uint32"
                }
            ],
            "name": "getOwnership",
            "outputs": [
                {
                    "internalType": "uint32",
                    "name": "",
                    "type": "uint32"
                },
                {
                    "internalType": "uint32",
                    "name": "",
                    "type": "uint32"
                },
                {
                    "internalType": "address",
                    "name": "",
                    "type": "address"
                },
                {
                    "internalType": "uint32",
                    "name": "",
                    "type": "uint32"
                }
            ],
            "stateMutability": "view",
            "type": "function"
        },
        {
            "inputs": [
                {
                    "internalType": "uint32",
                    "name": "_participant_id",
                    "type": "uint32"
                }
            ],
            "name": "getParticipant",
            "outputs": [
                {
                    "internalType": "string",
                    "name": "",
                    "type": "string"
                },
                {
                    "internalType": "address",
                    "name": "",
                    "type": "address"
                },
                {
                    "internalType": "string",
                    "name": "",
                    "type": "string"
                }
            ],
            "stateMutability": "view",
            "type": "function"
        },
        {
            "inputs": [
                {
                    "internalType": "uint32",
                    "name": "_productId",
                    "type": "uint32"
                }
            ],
            "name": "getProduct",
            "outputs": [
                {
                    "internalType": "string",
                    "name": "",
                    "type": "string"
                },
                {
                    "internalType": "string",
                    "name": "",
                    "type": "string"
                },
                {
                    "internalType": "string",
                    "name": "",
                    "type": "string"
                },
                {
                    "internalType": "uint32",
                    "name": "",
                    "type": "uint32"
                },
                {
                    "internalType": "address",
                    "name": "",
                    "type": "address"
                },
                {
                    "internalType": "uint32",
                    "name": "",
                    "type": "uint32"
                }
            ],
            "stateMutability": "view",
            "type": "function"
        },
        {
            "inputs": [
                {
                    "internalType": "uint32",
                    "name": "_prodId",
                    "type": "uint32"
                }
            ],
            "name": "getProvenance",
            "outputs": [
                {
                    "internalType": "uint32[]",
                    "name": "",
                    "type": "uint32[]"
                }
            ],
            "stateMutability": "view",
            "type": "function"
        },
        {
            "inputs": [
                {
                    "internalType": "uint32",
                    "name": "_user1Id",
                    "type": "uint32"
                },
                {
                    "internalType": "uint32",
                    "name": "_user2Id",
                    "type": "uint32"
                },
                {
                    "internalType": "uint32",
                    "name": "_prodId",
                    "type": "uint32"
                }
            ],
            "name": "newOwner",
            "outputs": [
                {
                    "internalType": "bool",
                    "name": "",
                    "type": "bool"
                }
            ],
            "stateMutability": "nonpayable",
            "type": "function"
        },
        {
            "inputs": [],
            "name": "owner_id",
            "outputs": [
                {
                    "internalType": "uint32",
                    "name": "",
                    "type": "uint32"
                }
            ],
            "stateMutability": "view",
            "type": "function"
        },
        {
            "inputs": [
                {
                    "internalType": "uint32",
                    "name": "",
                    "type": "uint32"
                }
            ],
            "name": "ownerships",
            "outputs": [
                {
                    "internalType": "uint32",
                    "name": "productId",
                    "type": "uint32"
                },
                {
                    "internalType": "uint32",
                    "name": "ownerId",
                    "type": "uint32"
                },
                {
                    "internalType": "uint32",
                    "name": "trxTimeStamp",
                    "type": "uint32"
                },
                {
                    "internalType": "address",
                    "name": "productOwner",
                    "type": "address"
                }
            ],
            "stateMutability": "view",
            "type": "function"
        },
        {
            "inputs": [],
            "name": "participant_id",
            "outputs": [
                {
                    "internalType": "uint32",
                    "name": "",
                    "type": "uint32"
                }
            ],
            "stateMutability": "view",
            "type": "function"
        },
        {
            "inputs": [
                {
                    "internalType": "uint32",
                    "name": "",
                    "type": "uint32"
                }
            ],
            "name": "participants",
            "outputs": [
                {
                    "internalType": "string",
                    "name": "userName",
                    "type": "string"
                },
                {
                    "internalType": "string",
                    "name": "password",
                    "type": "string"
                },
                {
                    "internalType": "string",
                    "name": "participantType",
                    "type": "string"
                },
                {
                    "internalType": "address",
                    "name": "participantAddress",
                    "type": "address"
                }
            ],
            "stateMutability": "view",
            "type": "function"
        },
        {
            "inputs": [
                {
                    "internalType": "uint32",
                    "name": "",
                    "type": "uint32"
                },
                {
                    "internalType": "uint256",
                    "name": "",
                    "type": "uint256"
                }
            ],
            "name": "productTrack",
            "outputs": [
                {
                    "internalType": "uint32",
                    "name": "",
                    "type": "uint32"
                }
            ],
            "stateMutability": "view",
            "type": "function"
        },
        {
            "inputs": [],
            "name": "product_id",
            "outputs": [
                {
                    "internalType": "uint32",
                    "name": "",
                    "type": "uint32"
                }
            ],
            "stateMutability": "view",
            "type": "function"
        },
        {
            "inputs": [
                {
                    "internalType": "uint32",
                    "name": "",
                    "type": "uint32"
                }
            ],
            "name": "products",
            "outputs": [
                {
                    "internalType": "string",
                    "name": "modelNumber",
                    "type": "string"
                },
                {
                    "internalType": "string",
                    "name": "partNumber",
                    "type": "string"
                },
                {
                    "internalType": "string",
                    "name": "serialNumber",
                    "type": "string"
                },
                {
                    "internalType": "address",
                    "name": "productOwner",
                    "type": "address"
                },
                {
                    "internalType": "uint32",
                    "name": "cost",
                    "type": "uint32"
                },
                {
                    "internalType": "uint32",
                    "name": "mfgTimeStamp",
                    "type": "uint32"
                }
            ],
            "stateMutability": "view",
            "type": "function"
        }
    ],
    "bytecode": "60806040525f80546001600160601b031916905534801561001e575f80fd5b5061229b8061002c5f395ff3fe608060405234801561000f575f80fd5b50600436106100f0575f3560e01c80638f5ebf7111610093578063df6d23f111610063578063df6d23f1146102b1578063eab0a47914610361578063ebf43a7e14610370578063fc2da91014610383575f80fd5b80638f5ebf7114610231578063a638ac4914610247578063bf712fd61461026c578063c856956514610291575f80fd5b806350632104116100ce5780635063210414610166578063721b5743146101795780637d0a9ac91461018c57806381e15610146101af575f80fd5b80631a074802146100f45780632e9d5284146101215780633b26a65d14610144575b5f80fd5b610107610102366004611b6e565b61039a565b60405163ffffffff90911681526020015b60405180910390f35b61013461012f366004611b96565b6103de565b6040519015158152602001610118565b610157610152366004611bd6565b610fc5565b60405161011893929190611c43565b610107610174366004611d1d565b611117565b610134610187366004611dc0565b611316565b61019f61019a366004611bd6565b61145d565b6040516101189493929190611e53565b6101fb6101bd366004611bd6565b60036020525f908152604090205463ffffffff808216916401000000008104821691600160401b82041690600160601b90046001600160a01b031684565b6040805163ffffffff9586168152938516602085015291909316908201526001600160a01b039091166060820152608001610118565b5f5461010790600160401b900463ffffffff1681565b61025a610255366004611bd6565b61161f565b60405161011896959493929190611ea5565b61027f61027a366004611bd6565b611826565b60405161011896959493929190611f0f565b6102a461029f366004611bd6565b611a01565b6040516101189190611f76565b6103286102bf366004611bd6565b63ffffffff8082165f908152600360209081526040918290208251608081018452905480851680835264010000000082048616938301849052600160401b82049095169382018490526001600160a01b03600160601b9091041660609091018190529093509193565b6040805163ffffffff958616815293851660208501526001600160a01b0390921691830191909152919091166060820152608001610118565b5f546101079063ffffffff1681565b61010761037e366004611fbf565b611a92565b5f5461010790640100000000900463ffffffff1681565b6004602052815f5260405f2081815481106103b3575f80fd5b905f5260205f209060089182820401919006600402915091509054906101000a900463ffffffff1681565b63ffffffff81165f9081526001602052604081206003015482906001600160a01b0316331461042c5760405162461bcd60e51b8152602060048201525f602482015260440160405180910390fd5b63ffffffff85165f9081526002602052604080822081516080810190925280548290829061045990612048565b80601f016020809104026020016040519081016040528092919081815260200182805461048590612048565b80156104d05780601f106104a7576101008083540402835291602001916104d0565b820191905f5260205f20905b8154815290600101906020018083116104b357829003601f168201915b505050505081526020016001820180546104e990612048565b80601f016020809104026020016040519081016040528092919081815260200182805461051590612048565b80156105605780601f1061053757610100808354040283529160200191610560565b820191905f5260205f20905b81548152906001019060200180831161054357829003601f168201915b5050505050815260200160028201805461057990612048565b80601f01602080910402602001604051908101604052809291908181526020018280546105a590612048565b80156105f05780601f106105c7576101008083540402835291602001916105f0565b820191905f5260205f20905b8154815290600101906020018083116105d357829003601f168201915b5050509183525050600391909101546001600160a01b031660209182015263ffffffff87165f90815260029091526040808220815160808101909252805493945091929091908290829061064390612048565b80601f016020809104026020016040519081016040528092919081815260200182805461066f90612048565b80156106ba5780601f10610691576101008083540402835291602001916106ba565b820191905f5260205f20905b81548152906001019060200180831161069d57829003601f168201915b505050505081526020016001820180546106d390612048565b80601f01602080910402602001604051908101604052809291908181526020018280546106ff90612048565b801561074a5780601f106107215761010080835404028352916020019161074a565b820191905f5260205f20905b81548152906001019060200180831161072d57829003601f168201915b5050505050815260200160028201805461076390612048565b80601f016020809104026020016040519081016040528092919081815260200182805461078f90612048565b80156107da5780601f106107b1576101008083540402835291602001916107da565b820191905f5260205f20905b8154815290600101906020018083116107bd57829003601f168201915b5050509183525050600391909101546001600160a01b03166020909101525f805491925090600160401b900463ffffffff1681600861081883612080565b91906101000a81548163ffffffff021916908363ffffffff16021790555090507fcec9b8e63c868f2f7f30368f1583e7aa39ae80e163d57a859fa5a90244b28ac1836040015160405160200161086e91906120ae565b604051602081830303815290604052805190602001201480156108c757505f8051602061224683398151915282604001516040516020016108af91906120ae565b60405160208183030381529060405280519060200120145b15610acb578560035f8363ffffffff1663ffffffff1681526020019081526020015f205f015f6101000a81548163ffffffff021916908363ffffffff160217905550816060015160035f8363ffffffff1663ffffffff1681526020019081526020015f205f01600c6101000a8154816001600160a01b0302191690836001600160a01b031602179055508660035f8363ffffffff1663ffffffff1681526020019081526020015f205f0160046101000a81548163ffffffff021916908363ffffffff1602179055504260035f8363ffffffff1663ffffffff1681526020019081526020015f205f0160086101000a81548163ffffffff021916908363ffffffff160217905550816060015160015f8863ffffffff1663ffffffff1681526020019081526020015f206003015f6101000a8154816001600160a01b0302191690836001600160a01b0316021790555060045f8763ffffffff1663ffffffff1681526020019081526020015f2081908060018154018082558091505060019003905f5260205f2090600891828204019190066004029091909190916101000a81548163ffffffff021916908363ffffffff1602179055507fa5470ac012c6e9dc500e62b1d3de0de58db49b3ab7cfebbfb126d9abd854199b86604051610ab7919063ffffffff91909116815260200190565b60405180910390a160019450505050610fbd565b5f805160206122468339815191528360400151604051602001610aee91906120ae565b60405160208183030381529060405280519060200120148015610b4757505f805160206122468339815191528260400151604051602001610b2f91906120ae565b60405160208183030381529060405280519060200120145b15610d37578560035f8363ffffffff1663ffffffff1681526020019081526020015f205f015f6101000a81548163ffffffff021916908363ffffffff160217905550816060015160035f8363ffffffff1663ffffffff1681526020019081526020015f205f01600c6101000a8154816001600160a01b0302191690836001600160a01b031602179055508660035f8363ffffffff1663ffffffff1681526020019081526020015f205f0160046101000a81548163ffffffff021916908363ffffffff1602179055504260035f8363ffffffff1663ffffffff1681526020019081526020015f205f0160086101000a81548163ffffffff021916908363ffffffff160217905550816060015160015f8863ffffffff1663ffffffff1681526020019081526020015f206003015f6101000a8154816001600160a01b0302191690836001600160a01b0316021790555060045f8763ffffffff1663ffffffff1681526020019081526020015f2081908060018154018082558091505060019003905f5260205f2090600891828204019190066004029091909190916101000a81548163ffffffff021916908363ffffffff1602179055507fa5470ac012c6e9dc500e62b1d3de0de58db49b3ab7cfebbfb126d9abd854199b86604051610ab7919063ffffffff91909116815260200190565b5f805160206122468339815191528360400151604051602001610d5a91906120ae565b60405160208183030381529060405280519060200120148015610dc657507fc0878b4b16a78e8085cba0ca02fc0924f1492924058d153153a3f286e0fd70ff8260400151604051602001610dae91906120ae565b60405160208183030381529060405280519060200120145b15610fb6578560035f8363ffffffff1663ffffffff1681526020019081526020015f205f015f6101000a81548163ffffffff021916908363ffffffff160217905550816060015160035f8363ffffffff1663ffffffff1681526020019081526020015f205f01600c6101000a8154816001600160a01b0302191690836001600160a01b031602179055508660035f8363ffffffff1663ffffffff1681526020019081526020015f205f0160046101000a81548163ffffffff021916908363ffffffff1602179055504260035f8363ffffffff1663ffffffff1681526020019081526020015f205f0160086101000a81548163ffffffff021916908363ffffffff160217905550816060015160015f8863ffffffff1663ffffffff1681526020019081526020015f206003015f6101000a8154816001600160a01b0302191690836001600160a01b0316021790555060045f8763ffffffff1663ffffffff1681526020019081526020015f2081908060018154018082558091505060019003905f5260205f2090600891828204019190066004029091909190916101000a81548163ffffffff021916908363ffffffff1602179055507fa5470ac012c6e9dc500e62b1d3de0de58db49b3ab7cfebbfb126d9abd854199b86604051610ab7919063ffffffff91909116815260200190565b5f94505050505b509392505050565b63ffffffff81165f908152600260208190526040822060038101548154606094938593926001600160a01b03169190830190839061100290612048565b80601f016020809104026020016040519081016040528092919081815260200182805461102e90612048565b80156110795780601f1061105057610100808354040283529160200191611079565b820191905f5260205f20905b81548152906001019060200180831161105c57829003601f168201915b5050505050925080805461108c90612048565b80601f01602080910402602001604051908101604052809291908181526020018280546110b890612048565b80156111035780601f106110da57610100808354040283529160200191611103565b820191905f5260205f20905b8154815290600101906020018083116110e657829003601f168201915b505050505090509250925092509193909250565b63ffffffff85165f90815260026020818152604080842090517fcec9b8e63c868f2f7f30368f1583e7aa39ae80e163d57a859fa5a90244b28ac19361115f93920191016120c9565b604051602081830303815290604052805190602001200361130a575f805463ffffffff16818061118e83612080565b82546101009290920a63ffffffff81810219909316918316021790915581165f9081526001602052604090209091506111c78782612189565b5063ffffffff81165f908152600160208190526040909120016111ea8682612189565b5063ffffffff81165f90815260016020526040902060020161120c8582612189565b508260015f8363ffffffff1663ffffffff1681526020019081526020015f2060030160146101000a81548163ffffffff021916908363ffffffff16021790555060025f8863ffffffff1663ffffffff1681526020019081526020015f206003015f9054906101000a90046001600160a01b031660015f8363ffffffff1663ffffffff1681526020019081526020015f206003015f6101000a8154816001600160a01b0302191690836001600160a01b031602179055504260015f8363ffffffff1663ffffffff1681526020019081526020015f2060030160186101000a81548163ffffffff021916908363ffffffff1602179055508091505061130d565b505f5b95945050505050565b5f8160405160200161132891906120ae565b60408051601f19818403018152828252805160209182012063ffffffff89165f90815260028084529390209093611364939190910191016120c9565b6040516020818303038152906040528051906020012003611452578360405160200161139091906120ae565b60408051601f19818403018152828252805160209182012063ffffffff89165f908152600283529290922091926113c89291016120c9565b604051602081830303815290604052805190602001200361145257826040516020016113f491906120ae565b60408051601f19818403018152828252805160209182012063ffffffff89165f9081526002835292909220919261142f9260010191016120c9565b604051602081830303815290604052805190602001200361145257506001611455565b505f5b949350505050565b60026020525f908152604090208054819061147790612048565b80601f01602080910402602001604051908101604052809291908181526020018280546114a390612048565b80156114ee5780601f106114c5576101008083540402835291602001916114ee565b820191905f5260205f20905b8154815290600101906020018083116114d157829003601f168201915b50505050509080600101805461150390612048565b80601f016020809104026020016040519081016040528092919081815260200182805461152f90612048565b801561157a5780601f106115515761010080835404028352916020019161157a565b820191905f5260205f20905b81548152906001019060200180831161155d57829003601f168201915b50505050509080600201805461158f90612048565b80601f01602080910402602001604051908101604052809291908181526020018280546115bb90612048565b80156116065780601f106115dd57610100808354040283529160200191611606565b820191905f5260205f20905b8154815290600101906020018083116115e957829003601f168201915b505050600390930154919250506001600160a01b031684565b63ffffffff8082165f908152600160208190526040822060038101548154606095869586959094859485949193928401926002850192600160a01b83048216926001600160a01b03811692600160c01b9091041690869061167f90612048565b80601f01602080910402602001604051908101604052809291908181526020018280546116ab90612048565b80156116f65780601f106116cd576101008083540402835291602001916116f6565b820191905f5260205f20905b8154815290600101906020018083116116d957829003601f168201915b5050505050955084805461170990612048565b80601f016020809104026020016040519081016040528092919081815260200182805461173590612048565b80156117805780601f1061175757610100808354040283529160200191611780565b820191905f5260205f20905b81548152906001019060200180831161176357829003601f168201915b5050505050945083805461179390612048565b80601f01602080910402602001604051908101604052809291908181526020018280546117bf90612048565b801561180a5780601f106117e15761010080835404028352916020019161180a565b820191905f5260205f20905b8154815290600101906020018083116117ed57829003601f168201915b5050505050935095509550955095509550955091939550919395565b60016020525f908152604090208054819061184090612048565b80601f016020809104026020016040519081016040528092919081815260200182805461186c90612048565b80156118b75780601f1061188e576101008083540402835291602001916118b7565b820191905f5260205f20905b81548152906001019060200180831161189a57829003601f168201915b5050505050908060010180546118cc90612048565b80601f01602080910402602001604051908101604052809291908181526020018280546118f890612048565b80156119435780601f1061191a57610100808354040283529160200191611943565b820191905f5260205f20905b81548152906001019060200180831161192657829003601f168201915b50505050509080600201805461195890612048565b80601f016020809104026020016040519081016040528092919081815260200182805461198490612048565b80156119cf5780601f106119a6576101008083540402835291602001916119cf565b820191905f5260205f20905b8154815290600101906020018083116119b257829003601f168201915b505050600390930154919250506001600160a01b0381169063ffffffff600160a01b8204811691600160c01b90041686565b63ffffffff81165f90815260046020908152604091829020805483518184028101840190945280845260609392830182828015611a8657602002820191905f5260205f20905f905b82829054906101000a900463ffffffff1663ffffffff1681526020019060040190602082600301049283019260010382029150808411611a495790505b50505050509050919050565b5f80548190640100000000900463ffffffff16816004611ab183612080565b82546101009290920a63ffffffff81810219909316918316021790915581165f908152600260205260409020909150611aea8782612189565b5063ffffffff81165f908152600260205260409020600101611b0c8682612189565b5063ffffffff81165f9081526002602081905260409091206003810180546001600160a01b0319166001600160a01b03881617905501611b4c8482612189565b5095945050505050565b803563ffffffff81168114611b69575f80fd5b919050565b5f8060408385031215611b7f575f80fd5b611b8883611b56565b946020939093013593505050565b5f805f60608486031215611ba8575f80fd5b611bb184611b56565b9250611bbf60208501611b56565b9150611bcd60408501611b56565b90509250925092565b5f60208284031215611be6575f80fd5b611bef82611b56565b9392505050565b5f5b83811015611c10578181015183820152602001611bf8565b50505f910152565b5f8151808452611c2f816020860160208601611bf6565b601f01601f19169290920160200192915050565b606081525f611c556060830186611c18565b6001600160a01b03851660208401528281036040840152611c768185611c18565b9695505050505050565b634e487b7160e01b5f52604160045260245ffd5b5f82601f830112611ca3575f80fd5b813567ffffffffffffffff80821115611cbe57611cbe611c80565b604051601f8301601f19908116603f01168101908282118183101715611ce657611ce6611c80565b81604052838152866020858801011115611cfe575f80fd5b836020870160208301375f602085830101528094505050505092915050565b5f805f805f60a08688031215611d31575f80fd5b611d3a86611b56565b9450602086013567ffffffffffffffff80821115611d56575f80fd5b611d6289838a01611c94565b95506040880135915080821115611d77575f80fd5b611d8389838a01611c94565b94506060880135915080821115611d98575f80fd5b50611da588828901611c94565b925050611db460808701611b56565b90509295509295909350565b5f805f8060808587031215611dd3575f80fd5b611ddc85611b56565b9350602085013567ffffffffffffffff80821115611df8575f80fd5b611e0488838901611c94565b94506040870135915080821115611e19575f80fd5b611e2588838901611c94565b93506060870135915080821115611e3a575f80fd5b50611e4787828801611c94565b91505092959194509250565b608081525f611e656080830187611c18565b8281036020840152611e778187611c18565b90508281036040840152611e8b8186611c18565b91505060018060a01b038316606083015295945050505050565b60c081525f611eb760c0830189611c18565b8281036020840152611ec98189611c18565b90508281036040840152611edd8188611c18565b63ffffffff96871660608501526001600160a01b039590951660808401525050921660a0909201919091529392505050565b60c081525f611f2160c0830189611c18565b8281036020840152611f338189611c18565b90508281036040840152611f478188611c18565b6001600160a01b03969096166060840152505063ffffffff9283166080820152911660a0909101529392505050565b602080825282518282018190525f9190848201906040850190845b81811015611fb357835163ffffffff1683529284019291840191600101611f91565b50909695505050505050565b5f805f8060808587031215611fd2575f80fd5b843567ffffffffffffffff80821115611fe9575f80fd5b611ff588838901611c94565b9550602087013591508082111561200a575f80fd5b61201688838901611c94565b9450604087013591506001600160a01b0382168214612033575f80fd5b90925060608601359080821115611e3a575f80fd5b600181811c9082168061205c57607f821691505b60208210810361207a57634e487b7160e01b5f52602260045260245ffd5b50919050565b5f63ffffffff8083168181036120a457634e487b7160e01b5f52601160045260245ffd5b6001019392505050565b5f82516120bf818460208701611bf6565b9190910192915050565b5f8083546120d681612048565b600182811680156120ee57600181146121035761212f565b60ff198416875282151583028701945061212f565b875f526020805f205f5b858110156121265781548a82015290840190820161210d565b50505082870194505b50929695505050505050565b601f821115612184575f81815260208120601f850160051c810160208610156121615750805b601f850160051c820191505b818110156121805782815560010161216d565b5050505b505050565b815167ffffffffffffffff8111156121a3576121a3611c80565b6121b7816121b18454612048565b8461213b565b602080601f8311600181146121ea575f84156121d35750858301515b5f19600386901b1c1916600185901b178555612180565b5f85815260208120601f198616915b82811015612218578886015182559484019460019091019084016121f9565b508582101561223557878501515f19600388901b60f8161c191681555b5050505050600190811b0190555056feb77c7d6bf62fa24fc205955093030c58325cd2d3d35fb486ede7594fb99635f5a26469706673582212201c05a3dc6be0a3647a905b713fd7be8a31a1837581a01113921b37fbaf57bb2664736f6c63430008140033",
    "sourcePath": "/Users/sidharth/Desktop/blockchainProject/contracts/supplyChain.sol",
    "compiler": {
        "name": "solc",
        "version": "0.8.20+commit.a1b79de6"
    },
    "functionHashes": {
        "addParticipant(string,string,address,string)": "ebf43a7e",
        "addProduct(uint32,string,string,string,uint32)": "50632104",
        "authenticateParticipant(uint32,string,string,string)": "721b5743",
        "getOwnership(uint32)": "df6d23f1",
        "getParticipant(uint32)": "3b26a65d",
        "getProduct(uint32)": "a638ac49",
        "getProvenance(uint32)": "c8569565",
        "newOwner(uint32,uint32,uint32)": "2e9d5284",
        "owner_id()": "8f5ebf71",
        "ownerships(uint32)": "81e15610",
        "participant_id()": "fc2da910",
        "participants(uint32)": "7d0a9ac9",
        "productTrack(uint32,uint256)": "1a074802",
        "product_id()": "eab0a479",
        "products(uint32)": "bf712fd6"
    },
    "gasEstimates": {
        "creation": {
            "codeDepositCost": "1771800",
            "executionCost": "26089",
            "totalCost": "1797889"
        },
        "external": {
            "addParticipant(string,string,address,string)": "infinite",
            "addProduct(uint32,string,string,string,uint32)": "infinite",
            "authenticateParticipant(uint32,string,string,string)": "infinite",
            "getOwnership(uint32)": "2864",
            "getParticipant(uint32)": "infinite",
            "getProduct(uint32)": "infinite",
            "getProvenance(uint32)": "infinite",
            "newOwner(uint32,uint32,uint32)": "infinite",
            "owner_id()": "2340",
            "ownerships(uint32)": "2788",
            "participant_id()": "2399",
            "participants(uint32)": "infinite",
            "productTrack(uint32,uint256)": "6415",
            "product_id()": "2344",
            "products(uint32)": "infinite"
        }
    }
}