{
  "contractName": "ERC20Token",
  "abi": [
    {
      "inputs": [
        {
          "internalType": "uint256",
          "name": "_initialAmount",
          "type": "uint256"
        },
        {
          "internalType": "string",
          "name": "_tokenName",
          "type": "string"
        },
        {
          "internalType": "uint8",
          "name": "_decimalUnits",
          "type": "uint8"
        },
        {
          "internalType": "string",
          "name": "_tokenSymbol",
          "type": "string"
        }
      ],
      "stateMutability": "nonpayable",
      "type": "constructor"
    },
    {
      "anonymous": false,
      "inputs": [
        {
          "indexed": true,
          "internalType": "address",
          "name": "tokenOwner",
          "type": "address"
        },
        {
          "indexed": true,
          "internalType": "address",
          "name": "spender",
          "type": "address"
        },
        {
          "indexed": false,
          "internalType": "uint256",
          "name": "tokens",
          "type": "uint256"
        }
      ],
      "name": "Approval",
      "type": "event"
    },
    {
      "anonymous": false,
      "inputs": [
        {
          "indexed": true,
          "internalType": "address",
          "name": "from",
          "type": "address"
        },
        {
          "indexed": true,
          "internalType": "address",
          "name": "to",
          "type": "address"
        },
        {
          "indexed": false,
          "internalType": "uint256",
          "name": "tokens",
          "type": "uint256"
        }
      ],
      "name": "Transfer",
      "type": "event"
    },
    {
      "inputs": [
        {
          "internalType": "address",
          "name": "",
          "type": "address"
        },
        {
          "internalType": "address",
          "name": "",
          "type": "address"
        }
      ],
      "name": "allowed",
      "outputs": [
        {
          "internalType": "uint256",
          "name": "",
          "type": "uint256"
        }
      ],
      "stateMutability": "view",
      "type": "function",
      "constant": true
    },
    {
      "inputs": [
        {
          "internalType": "address",
          "name": "",
          "type": "address"
        }
      ],
      "name": "balances",
      "outputs": [
        {
          "internalType": "uint256",
          "name": "",
          "type": "uint256"
        }
      ],
      "stateMutability": "view",
      "type": "function",
      "constant": true
    },
    {
      "inputs": [],
      "name": "decimals",
      "outputs": [
        {
          "internalType": "uint8",
          "name": "",
          "type": "uint8"
        }
      ],
      "stateMutability": "view",
      "type": "function",
      "constant": true
    },
    {
      "inputs": [],
      "name": "name",
      "outputs": [
        {
          "internalType": "string",
          "name": "",
          "type": "string"
        }
      ],
      "stateMutability": "view",
      "type": "function",
      "constant": true
    },
    {
      "inputs": [],
      "name": "symbol",
      "outputs": [
        {
          "internalType": "string",
          "name": "",
          "type": "string"
        }
      ],
      "stateMutability": "view",
      "type": "function",
      "constant": true
    },
    {
      "inputs": [],
      "name": "totSupply",
      "outputs": [
        {
          "internalType": "uint256",
          "name": "",
          "type": "uint256"
        }
      ],
      "stateMutability": "view",
      "type": "function",
      "constant": true
    },
    {
      "inputs": [
        {
          "internalType": "address",
          "name": "_to",
          "type": "address"
        },
        {
          "internalType": "uint256",
          "name": "_value",
          "type": "uint256"
        }
      ],
      "name": "transfer",
      "outputs": [
        {
          "internalType": "bool",
          "name": "success",
          "type": "bool"
        }
      ],
      "stateMutability": "nonpayable",
      "type": "function"
    },
    {
      "inputs": [
        {
          "internalType": "address",
          "name": "_from",
          "type": "address"
        },
        {
          "internalType": "address",
          "name": "_to",
          "type": "address"
        },
        {
          "internalType": "uint256",
          "name": "_value",
          "type": "uint256"
        }
      ],
      "name": "transferFrom",
      "outputs": [
        {
          "internalType": "bool",
          "name": "success",
          "type": "bool"
        }
      ],
      "stateMutability": "nonpayable",
      "type": "function"
    },
    {
      "inputs": [
        {
          "internalType": "address",
          "name": "_owner",
          "type": "address"
        }
      ],
      "name": "balanceOf",
      "outputs": [
        {
          "internalType": "uint256",
          "name": "balance",
          "type": "uint256"
        }
      ],
      "stateMutability": "view",
      "type": "function",
      "constant": true
    },
    {
      "inputs": [
        {
          "internalType": "address",
          "name": "_spender",
          "type": "address"
        },
        {
          "internalType": "uint256",
          "name": "_value",
          "type": "uint256"
        }
      ],
      "name": "approve",
      "outputs": [
        {
          "internalType": "bool",
          "name": "success",
          "type": "bool"
        }
      ],
      "stateMutability": "nonpayable",
      "type": "function"
    },
    {
      "inputs": [
        {
          "internalType": "address",
          "name": "_owner",
          "type": "address"
        },
        {
          "internalType": "address",
          "name": "_spender",
          "type": "address"
        }
      ],
      "name": "allowance",
      "outputs": [
        {
          "internalType": "uint256",
          "name": "remaining",
          "type": "uint256"
        }
      ],
      "stateMutability": "view",
      "type": "function",
      "constant": true
    },
    {
      "inputs": [],
      "name": "totalSupply",
      "outputs": [
        {
          "internalType": "uint256",
          "name": "totSupp",
          "type": "uint256"
        }
      ],
      "stateMutability": "view",
      "type": "function",
      "constant": true
    }
  ],
  "bytecode": "0x608060405234801562000010575f80fd5b50604051620015b2380380620015b28339818101604052810190620000369190620002be565b835f803373ffffffffffffffffffffffffffffffffffffffff1673ffffffffffffffffffffffffffffffffffffffff1681526020019081526020015f20819055508360028190555082600390816200008f919062000599565b508160045f6101000a81548160ff021916908360ff1602179055508060059081620000bb919062000599565b50505050506200067d565b5f604051905090565b5f80fd5b5f80fd5b5f819050919050565b620000eb81620000d7565b8114620000f6575f80fd5b50565b5f815190506200010981620000e0565b92915050565b5f80fd5b5f80fd5b5f601f19601f8301169050919050565b7f4e487b71000000000000000000000000000000000000000000000000000000005f52604160045260245ffd5b6200015f8262000117565b810181811067ffffffffffffffff8211171562000181576200018062000127565b5b80604052505050565b5f62000195620000c6565b9050620001a3828262000154565b919050565b5f67ffffffffffffffff821115620001c557620001c462000127565b5b620001d08262000117565b9050602081019050919050565b5f5b83811015620001fc578082015181840152602081019050620001df565b5f8484015250505050565b5f6200021d6200021784620001a8565b6200018a565b9050828152602081018484840111156200023c576200023b62000113565b5b62000249848285620001dd565b509392505050565b5f82601f8301126200026857620002676200010f565b5b81516200027a84826020860162000207565b91505092915050565b5f60ff82169050919050565b6200029a8162000283565b8114620002a5575f80fd5b50565b5f81519050620002b8816200028f565b92915050565b5f805f8060808587031215620002d957620002d8620000cf565b5b5f620002e887828801620000f9565b945050602085015167ffffffffffffffff8111156200030c576200030b620000d3565b5b6200031a8782880162000251565b93505060406200032d87828801620002a8565b925050606085015167ffffffffffffffff811115620003515762000350620000d3565b5b6200035f8782880162000251565b91505092959194509250565b5f81519050919050565b7f4e487b71000000000000000000000000000000000000000000000000000000005f52602260045260245ffd5b5f6002820490506001821680620003ba57607f821691505b602082108103620003d057620003cf62000375565b5b50919050565b5f819050815f5260205f209050919050565b5f6020601f8301049050919050565b5f82821b905092915050565b5f60088302620004347fffffffffffffffffffffffffffffffffffffffffffffffffffffffffffffffff82620003f7565b620004408683620003f7565b95508019841693508086168417925050509392505050565b5f819050919050565b5f620004816200047b6200047584620000d7565b62000458565b620000d7565b9050919050565b5f819050919050565b6200049c8362000461565b620004b4620004ab8262000488565b84845462000403565b825550505050565b5f90565b620004ca620004bc565b620004d781848462000491565b505050565b5b81811015620004fe57620004f25f82620004c0565b600181019050620004dd565b5050565b601f8211156200054d576200051781620003d6565b6200052284620003e8565b8101602085101562000532578190505b6200054a6200054185620003e8565b830182620004dc565b50505b505050565b5f82821c905092915050565b5f6200056f5f198460080262000552565b1980831691505092915050565b5f6200058983836200055e565b9150826002028217905092915050565b620005a4826200036b565b67ffffffffffffffff811115620005c057620005bf62000127565b5b620005cc8254620003a2565b620005d982828562000502565b5f60209050601f8311600181146200060f575f8415620005fa578287015190505b6200060685826200057c565b86555062000675565b601f1984166200061f86620003d6565b5f5b82811015620006485784890151825560018201915060208501945060208101905062000621565b8683101562000668578489015162000664601f8916826200055e565b8355505b6001600288020188555050505b505050505050565b610f27806200068b5f395ff3fe608060405234801561000f575f80fd5b50600436106100b2575f3560e01c80635c6581651161006f5780635c658165146101a057806370a08231146101d057806381fbf0a51461020057806395d89b411461021e578063a9059cbb1461023c578063dd62ed3e1461026c576100b2565b806306fdde03146100b6578063095ea7b3146100d457806318160ddd1461010457806323b872dd1461012257806327e235e314610152578063313ce56714610182575b5f80fd5b6100be61029c565b6040516100cb9190610aae565b60405180910390f35b6100ee60048036038101906100e99190610b5f565b610328565b6040516100fb9190610bb7565b60405180910390f35b61010c610415565b6040516101199190610bdf565b60405180910390f35b61013c60048036038101906101379190610bf8565b61041e565b6040516101499190610bb7565b60405180910390f35b61016c60048036038101906101679190610c48565b6106f2565b6040516101799190610bdf565b60405180910390f35b61018a610706565b6040516101979190610c8e565b60405180910390f35b6101ba60048036038101906101b59190610ca7565b610718565b6040516101c79190610bdf565b60405180910390f35b6101ea60048036038101906101e59190610c48565b610738565b6040516101f79190610bdf565b60405180910390f35b61020861077d565b6040516102159190610bdf565b60405180910390f35b610226610783565b6040516102339190610aae565b60405180910390f35b61025660048036038101906102519190610b5f565b61080f565b6040516102639190610bb7565b60405180910390f35b61028660048036038101906102819190610ca7565b6109a2565b6040516102939190610bdf565b60405180910390f35b600380546102a990610d12565b80601f01602080910402602001604051908101604052809291908181526020018280546102d590610d12565b80156103205780601f106102f757610100808354040283529160200191610320565b820191905f5260205f20905b81548152906001019060200180831161030357829003601f168201915b505050505081565b5f8160015f3373ffffffffffffffffffffffffffffffffffffffff1673ffffffffffffffffffffffffffffffffffffffff1681526020019081526020015f205f8573ffffffffffffffffffffffffffffffffffffffff1673ffffffffffffffffffffffffffffffffffffffff1681526020019081526020015f20819055508273ffffffffffffffffffffffffffffffffffffffff163373ffffffffffffffffffffffffffffffffffffffff167f8c5be1e5ebec7d5bd14f71427d1e84f3dd0314c0f7b2291e5b200ac8c7c3b925846040516104039190610bdf565b60405180910390a36001905092915050565b5f600254905090565b5f8060015f8673ffffffffffffffffffffffffffffffffffffffff1673ffffffffffffffffffffffffffffffffffffffff1681526020019081526020015f205f3373ffffffffffffffffffffffffffffffffffffffff1673ffffffffffffffffffffffffffffffffffffffff1681526020019081526020015f20549050825f808773ffffffffffffffffffffffffffffffffffffffff1673ffffffffffffffffffffffffffffffffffffffff1681526020019081526020015f2054101580156104e75750828110155b610526576040517f08c379a000000000000000000000000000000000000000000000000000000000815260040161051d90610db2565b60405180910390fd5b825f808673ffffffffffffffffffffffffffffffffffffffff1673ffffffffffffffffffffffffffffffffffffffff1681526020019081526020015f205f8282546105719190610dfd565b92505081905550825f808773ffffffffffffffffffffffffffffffffffffffff1673ffffffffffffffffffffffffffffffffffffffff1681526020019081526020015f205f8282546105c39190610e30565b925050819055507fffffffffffffffffffffffffffffffffffffffffffffffffffffffffffffffff811015610681578260015f8773ffffffffffffffffffffffffffffffffffffffff1673ffffffffffffffffffffffffffffffffffffffff1681526020019081526020015f205f3373ffffffffffffffffffffffffffffffffffffffff1673ffffffffffffffffffffffffffffffffffffffff1681526020019081526020015f205f8282546106799190610e30565b925050819055505b8373ffffffffffffffffffffffffffffffffffffffff168573ffffffffffffffffffffffffffffffffffffffff167fddf252ad1be2c89b69c2b068fc378daa952ba7f163c4a11628f55a4df523b3ef856040516106de9190610bdf565b60405180910390a360019150509392505050565b5f602052805f5260405f205f915090505481565b60045f9054906101000a900460ff1681565b6001602052815f5260405f20602052805f5260405f205f91509150505481565b5f805f8373ffffffffffffffffffffffffffffffffffffffff1673ffffffffffffffffffffffffffffffffffffffff1681526020019081526020015f20549050919050565b60025481565b6005805461079090610d12565b80601f01602080910402602001604051908101604052809291908181526020018280546107bc90610d12565b80156108075780601f106107de57610100808354040283529160200191610807565b820191905f5260205f20905b8154815290600101906020018083116107ea57829003601f168201915b505050505081565b5f815f803373ffffffffffffffffffffffffffffffffffffffff1673ffffffffffffffffffffffffffffffffffffffff1681526020019081526020015f2054101561088f576040517f08c379a000000000000000000000000000000000000000000000000000000000815260040161088690610ed3565b60405180910390fd5b815f803373ffffffffffffffffffffffffffffffffffffffff1673ffffffffffffffffffffffffffffffffffffffff1681526020019081526020015f205f8282546108da9190610e30565b92505081905550815f808573ffffffffffffffffffffffffffffffffffffffff1673ffffffffffffffffffffffffffffffffffffffff1681526020019081526020015f205f82825461092c9190610dfd565b925050819055508273ffffffffffffffffffffffffffffffffffffffff163373ffffffffffffffffffffffffffffffffffffffff167fddf252ad1be2c89b69c2b068fc378daa952ba7f163c4a11628f55a4df523b3ef846040516109909190610bdf565b60405180910390a36001905092915050565b5f60015f8473ffffffffffffffffffffffffffffffffffffffff1673ffffffffffffffffffffffffffffffffffffffff1681526020019081526020015f205f8373ffffffffffffffffffffffffffffffffffffffff1673ffffffffffffffffffffffffffffffffffffffff1681526020019081526020015f2054905092915050565b5f81519050919050565b5f82825260208201905092915050565b5f5b83811015610a5b578082015181840152602081019050610a40565b5f8484015250505050565b5f601f19601f8301169050919050565b5f610a8082610a24565b610a8a8185610a2e565b9350610a9a818560208601610a3e565b610aa381610a66565b840191505092915050565b5f6020820190508181035f830152610ac68184610a76565b905092915050565b5f80fd5b5f73ffffffffffffffffffffffffffffffffffffffff82169050919050565b5f610afb82610ad2565b9050919050565b610b0b81610af1565b8114610b15575f80fd5b50565b5f81359050610b2681610b02565b92915050565b5f819050919050565b610b3e81610b2c565b8114610b48575f80fd5b50565b5f81359050610b5981610b35565b92915050565b5f8060408385031215610b7557610b74610ace565b5b5f610b8285828601610b18565b9250506020610b9385828601610b4b565b9150509250929050565b5f8115159050919050565b610bb181610b9d565b82525050565b5f602082019050610bca5f830184610ba8565b92915050565b610bd981610b2c565b82525050565b5f602082019050610bf25f830184610bd0565b92915050565b5f805f60608486031215610c0f57610c0e610ace565b5b5f610c1c86828701610b18565b9350506020610c2d86828701610b18565b9250506040610c3e86828701610b4b565b9150509250925092565b5f60208284031215610c5d57610c5c610ace565b5b5f610c6a84828501610b18565b91505092915050565b5f60ff82169050919050565b610c8881610c73565b82525050565b5f602082019050610ca15f830184610c7f565b92915050565b5f8060408385031215610cbd57610cbc610ace565b5b5f610cca85828601610b18565b9250506020610cdb85828601610b18565b9150509250929050565b7f4e487b71000000000000000000000000000000000000000000000000000000005f52602260045260245ffd5b5f6002820490506001821680610d2957607f821691505b602082108103610d3c57610d3b610ce5565b5b50919050565b7f496e73756666696369656e7420616c6c6f7765642066756e647320666f7220745f8201527f72616e7366657220736f757263652e0000000000000000000000000000000000602082015250565b5f610d9c602f83610a2e565b9150610da782610d42565b604082019050919050565b5f6020820190508181035f830152610dc981610d90565b9050919050565b7f4e487b71000000000000000000000000000000000000000000000000000000005f52601160045260245ffd5b5f610e0782610b2c565b9150610e1283610b2c565b9250828201905080821115610e2a57610e29610dd0565b5b92915050565b5f610e3a82610b2c565b9150610e4583610b2c565b9250828203905081811115610e5d57610e5c610dd0565b5b92915050565b7f496e73756666696369656e742066756e647320666f72207472616e73666572205f8201527f736f757263652e00000000000000000000000000000000000000000000000000602082015250565b5f610ebd602783610a2e565b9150610ec882610e63565b604082019050919050565b5f6020820190508181035f830152610eea81610eb1565b905091905056fea26469706673582212200b06368edd5333860ba3f0b77ec4ffda5dafd6a9926b5db18bf737910eded70964736f6c63430008140033",
  "immutableReferences": {},
  "source": "// SPDX-License-Identifier: UNLICENSED\npragma solidity ^0.8.20;\n\nimport \"./erc20Interface.sol\";\n\ncontract ERC20Token is ERC20Interface {\n    uint256 private constant MAX_UINT256 = type(uint256).max;\n\n    mapping(address => uint256) public balances;\n    mapping(address => mapping(address => uint256)) public allowed;\n\n    uint256 public totSupply; // Total number of tokens\n    string public name; // Descriptive name (i.e., For SupplyChainApp Token)\n    uint8 public decimals; // How many decimals to use when displaying amounts\n    string public symbol; // Short identifier for the token (i.e., FDT)\n\n    // Create the new token and assign initial values, including the initial amount\n    constructor(\n        uint256 _initialAmount,\n        string memory _tokenName,\n        uint8 _decimalUnits,\n        string memory _tokenSymbol\n    ) {\n        balances[msg.sender] = _initialAmount; // The creator owns all initial tokens\n        totSupply = _initialAmount; // Update the total token supply\n        name = _tokenName; // Store the token name (used for display only)\n        decimals = _decimalUnits; // Store the number of decimals (used for display only)\n        symbol = _tokenSymbol; // Store the token symbol (used for display only)\n    }\n\n    // Transfer tokens from msg.sender to a specified address\n    function transfer(\n        address _to,\n        uint256 _value\n    ) public override returns (bool success) {\n        require(\n            balances[msg.sender] >= _value,\n            \"Insufficient funds for transfer source.\"\n        );\n        balances[msg.sender] -= _value;\n        balances[_to] += _value;\n        emit Transfer(msg.sender, _to, _value);\n        return true;\n    }\n\n    // Transfer tokens from one specified address to another specified address\n    function transferFrom(\n        address _from,\n        address _to,\n        uint256 _value\n    ) public override returns (bool success) {\n        uint256 allowance = allowed[_from][msg.sender];\n        require(\n            balances[_from] >= _value && allowance >= _value,\n            \"Insufficient allowed funds for transfer source.\"\n        );\n        balances[_to] += _value;\n        balances[_from] -= _value;\n        if (allowance < MAX_UINT256) {\n            allowed[_from][msg.sender] -= _value;\n        }\n        emit Transfer(_from, _to, _value);\n        return true;\n    }\n\n    // Return the current balance (in tokens) of a specified address\n    function balanceOf(\n        address _owner\n    ) public view override returns (uint256 balance) {\n        return balances[_owner];\n    }\n\n    // Set the allowance for a specified address\n    function approve(\n        address _spender,\n        uint256 _value\n    ) public override returns (bool success) {\n        allowed[msg.sender][_spender] = _value;\n        emit Approval(msg.sender, _spender, _value);\n        return true;\n    }\n\n    // Return the allowance for a specific owner and spender\n    function allowance(\n        address _owner,\n        address _spender\n    ) public view override returns (uint256 remaining) {\n        return allowed[_owner][_spender];\n    }\n\n    // Return the total number of tokens in circulation\n    function totalSupply() public view override returns (uint256 totSupp) {\n        return totSupply;\n    }\n}\n",
  "sourcePath": "/Users/sidharth/Desktop/blockchainProject/contracts/erc20token.sol",
  "compiler": {
    "name": "solc",
    "version": "0.8.20+commit.a1b79de6.Emscripten.clang"
  },
  "schemaVersion": "3.4.16",
  "updatedAt": "2023-12-25T01:40:04.448Z",
  "networkType": "ethereum",
  "devdoc": {
    "kind": "dev",
    "methods": {},
    "version": 1
  },
  "userdoc": {
    "kind": "user",
    "methods": {},
    "version": 1
  }
}