{
  "contractName": "supplyChain",
  "abi": [
    {
      "anonymous": false,
      "inputs": [
        {
          "indexed": false,
          "internalType": "uint32",
          "name": "userId",
          "type": "uint32"
        }
      ],
      "name": "Participant",
      "type": "event"
    },
    {
      "anonymous": false,
      "inputs": [
        {
          "indexed": false,
          "internalType": "uint32",
          "name": "productId",
          "type": "uint32"
        }
      ],
      "name": "Product",
      "type": "event"
    },
    {
      "anonymous": false,
      "inputs": [
        {
          "indexed": false,
          "internalType": "uint32",
          "name": "productId",
          "type": "uint32"
        }
      ],
      "name": "TransferOwnership",
      "type": "event"
    },
    {
      "inputs": [
        {
          "internalType": "uint32",
          "name": "",
          "type": "uint32"
        },
        {
          "internalType": "uint256",
          "name": "",
          "type": "uint256"
        }
      ],
      "name": "createByManufacturer",
      "outputs": [
        {
          "internalType": "uint32",
          "name": "",
          "type": "uint32"
        }
      ],
      "stateMutability": "view",
      "type": "function",
      "constant": true
    },
    {
      "inputs": [],
      "name": "owner_id",
      "outputs": [
        {
          "internalType": "uint32",
          "name": "",
          "type": "uint32"
        }
      ],
      "stateMutability": "view",
      "type": "function",
      "constant": true
    },
    {
      "inputs": [
        {
          "internalType": "uint32",
          "name": "",
          "type": "uint32"
        }
      ],
      "name": "ownerships",
      "outputs": [
        {
          "internalType": "uint32",
          "name": "productId",
          "type": "uint32"
        },
        {
          "internalType": "uint32",
          "name": "ownerId",
          "type": "uint32"
        },
        {
          "internalType": "uint32",
          "name": "trxTimeStamp",
          "type": "uint32"
        },
        {
          "internalType": "address",
          "name": "productOwner",
          "type": "address"
        }
      ],
      "stateMutability": "view",
      "type": "function",
      "constant": true
    },
    {
      "inputs": [],
      "name": "participant_id",
      "outputs": [
        {
          "internalType": "uint32",
          "name": "",
          "type": "uint32"
        }
      ],
      "stateMutability": "view",
      "type": "function",
      "constant": true
    },
    {
      "inputs": [
        {
          "internalType": "uint32",
          "name": "",
          "type": "uint32"
        }
      ],
      "name": "participants",
      "outputs": [
        {
          "internalType": "uint32",
          "name": "id",
          "type": "uint32"
        },
        {
          "internalType": "string",
          "name": "userName",
          "type": "string"
        },
        {
          "internalType": "string",
          "name": "password",
          "type": "string"
        },
        {
          "internalType": "string",
          "name": "participantType",
          "type": "string"
        },
        {
          "internalType": "address",
          "name": "participantAddress",
          "type": "address"
        }
      ],
      "stateMutability": "view",
      "type": "function",
      "constant": true
    },
    {
      "inputs": [
        {
          "internalType": "uint32",
          "name": "",
          "type": "uint32"
        },
        {
          "internalType": "uint256",
          "name": "",
          "type": "uint256"
        }
      ],
      "name": "productTrack",
      "outputs": [
        {
          "internalType": "address",
          "name": "",
          "type": "address"
        }
      ],
      "stateMutability": "view",
      "type": "function",
      "constant": true
    },
    {
      "inputs": [],
      "name": "product_id",
      "outputs": [
        {
          "internalType": "uint32",
          "name": "",
          "type": "uint32"
        }
      ],
      "stateMutability": "view",
      "type": "function",
      "constant": true
    },
    {
      "inputs": [
        {
          "internalType": "uint32",
          "name": "",
          "type": "uint32"
        }
      ],
      "name": "products",
      "outputs": [
        {
          "internalType": "uint32",
          "name": "id",
          "type": "uint32"
        },
        {
          "internalType": "string",
          "name": "modelNumber",
          "type": "string"
        },
        {
          "internalType": "string",
          "name": "partNumber",
          "type": "string"
        },
        {
          "internalType": "string",
          "name": "serialNumber",
          "type": "string"
        },
        {
          "internalType": "address",
          "name": "manufacturer",
          "type": "address"
        },
        {
          "internalType": "address",
          "name": "productOwner",
          "type": "address"
        },
        {
          "internalType": "uint32",
          "name": "cost",
          "type": "uint32"
        },
        {
          "internalType": "uint32",
          "name": "mfgTimeStamp",
          "type": "uint32"
        },
        {
          "internalType": "uint32",
          "name": "consumer",
          "type": "uint32"
        },
        {
          "internalType": "uint32",
          "name": "state",
          "type": "uint32"
        }
      ],
      "stateMutability": "view",
      "type": "function",
      "constant": true
    },
    {
      "inputs": [
        {
          "internalType": "string",
          "name": "_name",
          "type": "string"
        },
        {
          "internalType": "string",
          "name": "_pass",
          "type": "string"
        },
        {
          "internalType": "address",
          "name": "_pAdd",
          "type": "address"
        },
        {
          "internalType": "string",
          "name": "_pType",
          "type": "string"
        }
      ],
      "name": "addParticipant",
      "outputs": [
        {
          "internalType": "uint32",
          "name": "",
          "type": "uint32"
        }
      ],
      "stateMutability": "nonpayable",
      "type": "function"
    },
    {
      "inputs": [
        {
          "internalType": "uint32",
          "name": "_participant_id",
          "type": "uint32"
        }
      ],
      "name": "getParticipant",
      "outputs": [
        {
          "internalType": "string",
          "name": "",
          "type": "string"
        },
        {
          "internalType": "address",
          "name": "",
          "type": "address"
        },
        {
          "internalType": "string",
          "name": "",
          "type": "string"
        }
      ],
      "stateMutability": "view",
      "type": "function",
      "constant": true
    },
    {
      "inputs": [
        {
          "internalType": "uint32",
          "name": "_ownerId",
          "type": "uint32"
        },
        {
          "internalType": "string",
          "name": "_modelNumber",
          "type": "string"
        },
        {
          "internalType": "string",
          "name": "_partNumber",
          "type": "string"
        },
        {
          "internalType": "string",
          "name": "_serialNumber",
          "type": "string"
        },
        {
          "internalType": "uint32",
          "name": "_productCost",
          "type": "uint32"
        },
        {
          "internalType": "uint32",
          "name": "_consumer",
          "type": "uint32"
        },
        {
          "components": [
            {
              "internalType": "uint32",
              "name": "id",
              "type": "uint32"
            },
            {
              "internalType": "uint32",
              "name": "cost",
              "type": "uint32"
            }
          ],
          "internalType": "struct supplyChain.ProductSuppliers[]",
          "name": "_supplierList",
          "type": "tuple[]"
        }
      ],
      "name": "addProduct",
      "outputs": [
        {
          "internalType": "uint32",
          "name": "",
          "type": "uint32"
        }
      ],
      "stateMutability": "nonpayable",
      "type": "function"
    },
    {
      "inputs": [
        {
          "internalType": "uint32",
          "name": "_manufacturer_id",
          "type": "uint32"
        }
      ],
      "name": "getProductsForManufacturer",
      "outputs": [
        {
          "internalType": "uint32[]",
          "name": "",
          "type": "uint32[]"
        }
      ],
      "stateMutability": "view",
      "type": "function",
      "constant": true
    },
    {
      "inputs": [
        {
          "internalType": "uint32",
          "name": "_productId",
          "type": "uint32"
        }
      ],
      "name": "getProduct",
      "outputs": [
        {
          "components": [
            {
              "internalType": "uint32",
              "name": "id",
              "type": "uint32"
            },
            {
              "internalType": "string",
              "name": "modelNumber",
              "type": "string"
            },
            {
              "internalType": "string",
              "name": "partNumber",
              "type": "string"
            },
            {
              "internalType": "string",
              "name": "serialNumber",
              "type": "string"
            },
            {
              "internalType": "address",
              "name": "manufacturer",
              "type": "address"
            },
            {
              "internalType": "address",
              "name": "productOwner",
              "type": "address"
            },
            {
              "internalType": "uint32",
              "name": "cost",
              "type": "uint32"
            },
            {
              "internalType": "uint32",
              "name": "mfgTimeStamp",
              "type": "uint32"
            },
            {
              "components": [
                {
                  "internalType": "uint32",
                  "name": "id",
                  "type": "uint32"
                },
                {
                  "internalType": "uint32",
                  "name": "cost",
                  "type": "uint32"
                }
              ],
              "internalType": "struct supplyChain.ProductSuppliers[]",
              "name": "suppliers",
              "type": "tuple[]"
            },
            {
              "internalType": "uint32",
              "name": "consumer",
              "type": "uint32"
            },
            {
              "internalType": "uint32",
              "name": "state",
              "type": "uint32"
            }
          ],
          "internalType": "struct supplyChain.product",
          "name": "",
          "type": "tuple"
        }
      ],
      "stateMutability": "view",
      "type": "function",
      "constant": true
    },
    {
      "inputs": [
        {
          "internalType": "uint32",
          "name": "_supplierId",
          "type": "uint32"
        }
      ],
      "name": "getProductsBySupplier",
      "outputs": [
        {
          "components": [
            {
              "internalType": "uint32",
              "name": "id",
              "type": "uint32"
            },
            {
              "internalType": "string",
              "name": "modelNumber",
              "type": "string"
            },
            {
              "internalType": "string",
              "name": "partNumber",
              "type": "string"
            },
            {
              "internalType": "string",
              "name": "serialNumber",
              "type": "string"
            },
            {
              "internalType": "address",
              "name": "manufacturer",
              "type": "address"
            },
            {
              "internalType": "address",
              "name": "productOwner",
              "type": "address"
            },
            {
              "internalType": "uint32",
              "name": "cost",
              "type": "uint32"
            },
            {
              "internalType": "uint32",
              "name": "mfgTimeStamp",
              "type": "uint32"
            },
            {
              "components": [
                {
                  "internalType": "uint32",
                  "name": "id",
                  "type": "uint32"
                },
                {
                  "internalType": "uint32",
                  "name": "cost",
                  "type": "uint32"
                }
              ],
              "internalType": "struct supplyChain.ProductSuppliers[]",
              "name": "suppliers",
              "type": "tuple[]"
            },
            {
              "internalType": "uint32",
              "name": "consumer",
              "type": "uint32"
            },
            {
              "internalType": "uint32",
              "name": "state",
              "type": "uint32"
            }
          ],
          "internalType": "struct supplyChain.product[]",
          "name": "",
          "type": "tuple[]"
        }
      ],
      "stateMutability": "view",
      "type": "function",
      "constant": true
    },
    {
      "inputs": [
        {
          "internalType": "uint32",
          "name": "_prodId",
          "type": "uint32"
        }
      ],
      "name": "moveProductToNextStage",
      "outputs": [
        {
          "internalType": "bool",
          "name": "",
          "type": "bool"
        }
      ],
      "stateMutability": "nonpayable",
      "type": "function"
    },
    {
      "inputs": [
        {
          "internalType": "uint32",
          "name": "_prodId",
          "type": "uint32"
        }
      ],
      "name": "getProvenance",
      "outputs": [
        {
          "internalType": "address[]",
          "name": "",
          "type": "address[]"
        }
      ],
      "stateMutability": "view",
      "type": "function",
      "constant": true
    },
    {
      "inputs": [
        {
          "internalType": "uint32",
          "name": "_regId",
          "type": "uint32"
        }
      ],
      "name": "getOwnership",
      "outputs": [
        {
          "internalType": "uint32",
          "name": "",
          "type": "uint32"
        },
        {
          "internalType": "uint32",
          "name": "",
          "type": "uint32"
        },
        {
          "internalType": "address",
          "name": "",
          "type": "address"
        },
        {
          "internalType": "uint32",
          "name": "",
          "type": "uint32"
        }
      ],
      "stateMutability": "view",
      "type": "function",
      "constant": true
    },
    {
      "inputs": [
        {
          "internalType": "uint32",
          "name": "_uid",
          "type": "uint32"
        },
        {
          "internalType": "string",
          "name": "_uname",
          "type": "string"
        },
        {
          "internalType": "string",
          "name": "_pass",
          "type": "string"
        },
        {
          "internalType": "string",
          "name": "_utype",
          "type": "string"
        }
      ],
      "name": "authenticateParticipant",
      "outputs": [
        {
          "internalType": "bool",
          "name": "",
          "type": "bool"
        }
      ],
      "stateMutability": "view",
      "type": "function",
      "constant": true
    }
  ],
  "bytecode": "0x60806040525f805f6101000a81548163ffffffff021916908363ffffffff1602179055505f8060046101000a81548163ffffffff021916908363ffffffff1602179055505f8060086101000a81548163ffffffff021916908363ffffffff16021790555034801561006e575f80fd5b50613d108061007c5f395ff3fe608060405234801561000f575f80fd5b5060043610610114575f3560e01c8063a35972b3116100a0578063df6d23f11161006f578063df6d23f114610388578063eab0a479146103bb578063ebf43a7e146103d9578063f933f9b914610409578063fc2da9101461043957610114565b8063a35972b3146102bf578063a638ac49146102ef578063bf712fd61461031f578063c85695651461035857610114565b8063721b5743116100e7578063721b5743146101da5780637d0a9ac91461020a57806381e156101461023e5780638f5ebf711461027157806393b349ec1461028f57610114565b80631a074802146101185780633b26a65d1461014857806365b76d2a1461017a57806371d3e774146101aa575b5f80fd5b610132600480360381019061012d91906129c1565b610457565b60405161013f9190612a3e565b60405180910390f35b610162600480360381019061015d9190612a57565b61049f565b60405161017193929190612b0c565b60405180910390f35b610194600480360381019061018f9190612d90565b610645565b6040516101a19190612eac565b60405180910390f35b6101c460048036038101906101bf9190612a57565b610c27565b6040516101d19190612f7c565b60405180910390f35b6101f460048036038101906101ef9190612f9c565b610cc5565b604051610201919061306e565b60405180910390f35b610224600480360381019061021f9190612a57565b610e33565b604051610235959493929190613087565b60405180910390f35b61025860048036038101906102539190612a57565b611025565b60405161026894939291906130ed565b60405180910390f35b61027961109d565b6040516102869190612eac565b60405180910390f35b6102a960048036038101906102a491906129c1565b6110b2565b6040516102b69190612eac565b60405180910390f35b6102d960048036038101906102d49190612a57565b6110f6565b6040516102e69190613418565b60405180910390f35b61030960048036038101906103049190612a57565b611756565b6040516103169190613539565b60405180910390f35b61033960048036038101906103349190612a57565b611b44565b60405161034f9a99989796959493929190613559565b60405180910390f35b610372600480360381019061036d9190612a57565b611db2565b60405161037f91906136b0565b60405180910390f35b6103a2600480360381019061039d9190612a57565b611e5a565b6040516103b294939291906136d0565b60405180910390f35b6103c3611f6f565b6040516103d09190612eac565b60405180910390f35b6103f360048036038101906103ee919061373d565b611f82565b6040516104009190612eac565b60405180910390f35b610423600480360381019061041e9190612a57565b61212d565b604051610430919061306e565b60405180910390f35b610441612892565b60405161044e9190612eac565b60405180910390f35b6004602052815f5260405f208181548110610470575f80fd5b905f5260205f20015f915091509054906101000a900473ffffffffffffffffffffffffffffffffffffffff1681565b60605f606060025f8563ffffffff1663ffffffff1681526020019081526020015f2060010160025f8663ffffffff1663ffffffff1681526020019081526020015f206004015f9054906101000a900473ffffffffffffffffffffffffffffffffffffffff1660025f8763ffffffff1663ffffffff1681526020019081526020015f2060030182805461053090613822565b80601f016020809104026020016040519081016040528092919081815260200182805461055c90613822565b80156105a75780601f1061057e576101008083540402835291602001916105a7565b820191905f5260205f20905b81548152906001019060200180831161058a57829003601f168201915b505050505092508080546105ba90613822565b80601f01602080910402602001604051908101604052809291908181526020018280546105e690613822565b80156106315780601f1061060857610100808354040283529160200191610631565b820191905f5260205f20905b81548152906001019060200180831161061457829003601f168201915b505050505090509250925092509193909250565b5f7fcec9b8e63c868f2f7f30368f1583e7aa39ae80e163d57a859fa5a90244b28ac160025f8a63ffffffff1663ffffffff1681526020019081526020015f2060030160405160200161069791906138ee565b6040516020818303038152906040528051906020012003610c18575f805f81819054906101000a900463ffffffff16809291906106d390613931565b91906101000a81548163ffffffff021916908363ffffffff16021790555090508060015f8363ffffffff1663ffffffff1681526020019081526020015f205f015f6101000a81548163ffffffff021916908363ffffffff1602179055508760015f8363ffffffff1663ffffffff1681526020019081526020015f20600101908161075d9190613ae7565b508660015f8363ffffffff1663ffffffff1681526020019081526020015f20600201908161078b9190613ae7565b508560015f8363ffffffff1663ffffffff1681526020019081526020015f2060030190816107b99190613ae7565b508460015f8363ffffffff1663ffffffff1681526020019081526020015f2060050160146101000a81548163ffffffff021916908363ffffffff16021790555060025f8a63ffffffff1663ffffffff1681526020019081526020015f206004015f9054906101000a900473ffffffffffffffffffffffffffffffffffffffff1660015f8363ffffffff1663ffffffff1681526020019081526020015f206004015f6101000a81548173ffffffffffffffffffffffffffffffffffffffff021916908373ffffffffffffffffffffffffffffffffffffffff16021790555060025f8a63ffffffff1663ffffffff1681526020019081526020015f206004015f9054906101000a900473ffffffffffffffffffffffffffffffffffffffff1660015f8363ffffffff1663ffffffff1681526020019081526020015f206005015f6101000a81548173ffffffffffffffffffffffffffffffffffffffff021916908373ffffffffffffffffffffffffffffffffffffffff1602179055504260015f8363ffffffff1663ffffffff1681526020019081526020015f2060050160186101000a81548163ffffffff021916908363ffffffff1602179055505f5b8351811015610a395760015f8363ffffffff1663ffffffff1681526020019081526020015f206006018482815181106109b0576109af613bb6565b5b6020026020010151908060018154018082558091505060019003905f5260205f20015f909190919091505f820151815f015f6101000a81548163ffffffff021916908363ffffffff1602179055506020820151815f0160046101000a81548163ffffffff021916908363ffffffff16021790555050508080610a3190613be3565b915050610974565b508360015f8363ffffffff1663ffffffff1681526020019081526020015f206007015f6101000a81548163ffffffff021916908363ffffffff1602179055505f60015f8363ffffffff1663ffffffff1681526020019081526020015f2060070160046101000a81548163ffffffff021916908363ffffffff16021790555060055f8a63ffffffff1663ffffffff1681526020019081526020015f2081908060018154018082558091505060019003905f5260205f2090600891828204019190066004029091909190916101000a81548163ffffffff021916908363ffffffff16021790555060045f8263ffffffff1663ffffffff1681526020019081526020015f2060025f8b63ffffffff1663ffffffff1681526020019081526020015f206004015f9054906101000a900473ffffffffffffffffffffffffffffffffffffffff16908060018154018082558091505060019003905f5260205f20015f9091909190916101000a81548173ffffffffffffffffffffffffffffffffffffffff021916908373ffffffffffffffffffffffffffffffffffffffff1602179055507ff53f81b4ad735e4ec0acfeec5ec2bab81dd6cfc021fb323fd7b58a556d407cb381604051610c079190612eac565b60405180910390a180915050610c1c565b5f90505b979650505050505050565b606060055f8363ffffffff1663ffffffff1681526020019081526020015f20805480602002602001604051908101604052809291908181526020018280548015610cb957602002820191905f5260205f20905f905b82829054906101000a900463ffffffff1663ffffffff1681526020019060040190602082600301049283019260010382029150808411610c7c5790505b50505050509050919050565b5f81604051602001610cd79190613c5a565b6040516020818303038152906040528051906020012060025f8763ffffffff1663ffffffff1681526020019081526020015f20600301604051602001610d1d91906138ee565b6040516020818303038152906040528051906020012003610e275783604051602001610d499190613c5a565b6040516020818303038152906040528051906020012060025f8763ffffffff1663ffffffff1681526020019081526020015f20600101604051602001610d8f91906138ee565b6040516020818303038152906040528051906020012003610e265782604051602001610dbb9190613c5a565b6040516020818303038152906040528051906020012060025f8763ffffffff1663ffffffff1681526020019081526020015f20600201604051602001610e0191906138ee565b6040516020818303038152906040528051906020012003610e255760019050610e2b565b5b5b5f90505b949350505050565b6002602052805f5260405f205f91509050805f015f9054906101000a900463ffffffff1690806001018054610e6790613822565b80601f0160208091040260200160405190810160405280929190818152602001828054610e9390613822565b8015610ede5780601f10610eb557610100808354040283529160200191610ede565b820191905f5260205f20905b815481529060010190602001808311610ec157829003601f168201915b505050505090806002018054610ef390613822565b80601f0160208091040260200160405190810160405280929190818152602001828054610f1f90613822565b8015610f6a5780601f10610f4157610100808354040283529160200191610f6a565b820191905f5260205f20905b815481529060010190602001808311610f4d57829003601f168201915b505050505090806003018054610f7f90613822565b80601f0160208091040260200160405190810160405280929190818152602001828054610fab90613822565b8015610ff65780601f10610fcd57610100808354040283529160200191610ff6565b820191905f5260205f20905b815481529060010190602001808311610fd957829003601f168201915b505050505090806004015f9054906101000a900473ffffffffffffffffffffffffffffffffffffffff16905085565b6003602052805f5260405f205f91509050805f015f9054906101000a900463ffffffff1690805f0160049054906101000a900463ffffffff1690805f0160089054906101000a900463ffffffff1690805f01600c9054906101000a900473ffffffffffffffffffffffffffffffffffffffff16905084565b5f60089054906101000a900463ffffffff1681565b6005602052815f5260405f2081815481106110cb575f80fd5b905f5260205f209060089182820401919006600402915091509054906101000a900463ffffffff1681565b60605f805b5f8054906101000a900463ffffffff1663ffffffff168163ffffffff16116111f05760025f8563ffffffff1663ffffffff1681526020019081526020015f206004015f9054906101000a900473ffffffffffffffffffffffffffffffffffffffff1673ffffffffffffffffffffffffffffffffffffffff1660015f8363ffffffff1663ffffffff1681526020019081526020015f206005015f9054906101000a900473ffffffffffffffffffffffffffffffffffffffff1673ffffffffffffffffffffffffffffffffffffffff16036111dd5781806111d990613931565b9250505b80806111e890613931565b9150506110fb565b505f8163ffffffff1667ffffffffffffffff81111561121257611211612b57565b5b60405190808252806020026020018201604052801561124b57816020015b6112386128a7565b8152602001906001900390816112305790505b5090505f91505f5b5f8054906101000a900463ffffffff1663ffffffff168163ffffffff161161174b5760025f8663ffffffff1663ffffffff1681526020019081526020015f206004015f9054906101000a900473ffffffffffffffffffffffffffffffffffffffff1673ffffffffffffffffffffffffffffffffffffffff1660015f8363ffffffff1663ffffffff1681526020019081526020015f206005015f9054906101000a900473ffffffffffffffffffffffffffffffffffffffff1673ffffffffffffffffffffffffffffffffffffffff16036117385760015f8263ffffffff1663ffffffff1681526020019081526020015f20604051806101600160405290815f82015f9054906101000a900463ffffffff1663ffffffff1663ffffffff16815260200160018201805461138390613822565b80601f01602080910402602001604051908101604052809291908181526020018280546113af90613822565b80156113fa5780601f106113d1576101008083540402835291602001916113fa565b820191905f5260205f20905b8154815290600101906020018083116113dd57829003601f168201915b5050505050815260200160028201805461141390613822565b80601f016020809104026020016040519081016040528092919081815260200182805461143f90613822565b801561148a5780601f106114615761010080835404028352916020019161148a565b820191905f5260205f20905b81548152906001019060200180831161146d57829003601f168201915b505050505081526020016003820180546114a390613822565b80601f01602080910402602001604051908101604052809291908181526020018280546114cf90613822565b801561151a5780601f106114f15761010080835404028352916020019161151a565b820191905f5260205f20905b8154815290600101906020018083116114fd57829003601f168201915b50505050508152602001600482015f9054906101000a900473ffffffffffffffffffffffffffffffffffffffff1673ffffffffffffffffffffffffffffffffffffffff1673ffffffffffffffffffffffffffffffffffffffff168152602001600582015f9054906101000a900473ffffffffffffffffffffffffffffffffffffffff1673ffffffffffffffffffffffffffffffffffffffff1673ffffffffffffffffffffffffffffffffffffffff1681526020016005820160149054906101000a900463ffffffff1663ffffffff1663ffffffff1681526020016005820160189054906101000a900463ffffffff1663ffffffff1663ffffffff16815260200160068201805480602002602001604051908101604052809291908181526020015f905b828210156116b2578382905f5260205f20016040518060400160405290815f82015f9054906101000a900463ffffffff1663ffffffff1663ffffffff1681526020015f820160049054906101000a900463ffffffff1663ffffffff1663ffffffff16815250508152602001906001019061163d565b505050508152602001600782015f9054906101000a900463ffffffff1663ffffffff1663ffffffff1681526020016007820160049054906101000a900463ffffffff1663ffffffff1663ffffffff1681525050828463ffffffff168151811061171e5761171d613bb6565b5b6020026020010181905250828061173490613931565b9350505b808061174390613931565b915050611253565b508092505050919050565b61175e6128a7565b60015f8363ffffffff1663ffffffff1681526020019081526020015f20604051806101600160405290815f82015f9054906101000a900463ffffffff1663ffffffff1663ffffffff1681526020016001820180546117bb90613822565b80601f01602080910402602001604051908101604052809291908181526020018280546117e790613822565b80156118325780601f1061180957610100808354040283529160200191611832565b820191905f5260205f20905b81548152906001019060200180831161181557829003601f168201915b5050505050815260200160028201805461184b90613822565b80601f016020809104026020016040519081016040528092919081815260200182805461187790613822565b80156118c25780601f10611899576101008083540402835291602001916118c2565b820191905f5260205f20905b8154815290600101906020018083116118a557829003601f168201915b505050505081526020016003820180546118db90613822565b80601f016020809104026020016040519081016040528092919081815260200182805461190790613822565b80156119525780601f1061192957610100808354040283529160200191611952565b820191905f5260205f20905b81548152906001019060200180831161193557829003601f168201915b50505050508152602001600482015f9054906101000a900473ffffffffffffffffffffffffffffffffffffffff1673ffffffffffffffffffffffffffffffffffffffff1673ffffffffffffffffffffffffffffffffffffffff168152602001600582015f9054906101000a900473ffffffffffffffffffffffffffffffffffffffff1673ffffffffffffffffffffffffffffffffffffffff1673ffffffffffffffffffffffffffffffffffffffff1681526020016005820160149054906101000a900463ffffffff1663ffffffff1663ffffffff1681526020016005820160189054906101000a900463ffffffff1663ffffffff1663ffffffff16815260200160068201805480602002602001604051908101604052809291908181526020015f905b82821015611aea578382905f5260205f20016040518060400160405290815f82015f9054906101000a900463ffffffff1663ffffffff1663ffffffff1681526020015f820160049054906101000a900463ffffffff1663ffffffff1663ffffffff168152505081526020019060010190611a75565b505050508152602001600782015f9054906101000a900463ffffffff1663ffffffff1663ffffffff1681526020016007820160049054906101000a900463ffffffff1663ffffffff1663ffffffff16815250509050919050565b6001602052805f5260405f205f91509050805f015f9054906101000a900463ffffffff1690806001018054611b7890613822565b80601f0160208091040260200160405190810160405280929190818152602001828054611ba490613822565b8015611bef5780601f10611bc657610100808354040283529160200191611bef565b820191905f5260205f20905b815481529060010190602001808311611bd257829003601f168201915b505050505090806002018054611c0490613822565b80601f0160208091040260200160405190810160405280929190818152602001828054611c3090613822565b8015611c7b5780601f10611c5257610100808354040283529160200191611c7b565b820191905f5260205f20905b815481529060010190602001808311611c5e57829003601f168201915b505050505090806003018054611c9090613822565b80601f0160208091040260200160405190810160405280929190818152602001828054611cbc90613822565b8015611d075780601f10611cde57610100808354040283529160200191611d07565b820191905f5260205f20905b815481529060010190602001808311611cea57829003601f168201915b505050505090806004015f9054906101000a900473ffffffffffffffffffffffffffffffffffffffff1690806005015f9054906101000a900473ffffffffffffffffffffffffffffffffffffffff16908060050160149054906101000a900463ffffffff16908060050160189054906101000a900463ffffffff1690806007015f9054906101000a900463ffffffff16908060070160049054906101000a900463ffffffff1690508a565b606060045f8363ffffffff1663ffffffff1681526020019081526020015f20805480602002602001604051908101604052809291908181526020018280548015611e4e57602002820191905f5260205f20905b815f9054906101000a900473ffffffffffffffffffffffffffffffffffffffff1673ffffffffffffffffffffffffffffffffffffffff1681526020019060010190808311611e05575b50505050509050919050565b5f805f805f60035f8763ffffffff1663ffffffff1681526020019081526020015f206040518060800160405290815f82015f9054906101000a900463ffffffff1663ffffffff1663ffffffff1681526020015f820160049054906101000a900463ffffffff1663ffffffff1663ffffffff1681526020015f820160089054906101000a900463ffffffff1663ffffffff1663ffffffff1681526020015f8201600c9054906101000a900473ffffffffffffffffffffffffffffffffffffffff1673ffffffffffffffffffffffffffffffffffffffff1673ffffffffffffffffffffffffffffffffffffffff16815250509050805f01518160200151826060015183604001519450945094509450509193509193565b5f8054906101000a900463ffffffff1681565b5f805f600481819054906101000a900463ffffffff1680929190611fa590613931565b91906101000a81548163ffffffff021916908363ffffffff16021790555090508060025f8363ffffffff1663ffffffff1681526020019081526020015f205f015f6101000a81548163ffffffff021916908363ffffffff1602179055508560025f8363ffffffff1663ffffffff1681526020019081526020015f20600101908161202f9190613ae7565b508460025f8363ffffffff1663ffffffff1681526020019081526020015f20600201908161205d9190613ae7565b508360025f8363ffffffff1663ffffffff1681526020019081526020015f206004015f6101000a81548173ffffffffffffffffffffffffffffffffffffffff021916908373ffffffffffffffffffffffffffffffffffffffff1602179055508260025f8363ffffffff1663ffffffff1681526020019081526020015f2060030190816120e99190613ae7565b507f1cb4709bc7856dd3574ab258bbd80dcd7ac9a369a78f7cb16e020159e424d54c816040516121199190612eac565b60405180910390a180915050949350505050565b5f815f805f60015f8763ffffffff1663ffffffff1681526020019081526020015f206004015f9054906101000a900473ffffffffffffffffffffffffffffffffffffffff1673ffffffffffffffffffffffffffffffffffffffff1660015f8863ffffffff1663ffffffff1681526020019081526020015f206005015f9054906101000a900473ffffffffffffffffffffffffffffffffffffffff1673ffffffffffffffffffffffffffffffffffffffff1603612324575f60015f8863ffffffff1663ffffffff1681526020019081526020015f20600601805490500361228a5760015f8763ffffffff1663ffffffff1681526020019081526020015f206007015f9054906101000a900463ffffffff16915060025f8363ffffffff1663ffffffff1681526020019081526020015f206004015f9054906101000a900473ffffffffffffffffffffffffffffffffffffffff1692506002905061231f565b60015f8763ffffffff1663ffffffff1681526020019081526020015f206006015f815481106122bc576122bb613bb6565b5b905f5260205f20015f015f9054906101000a900463ffffffff16915060025f8363ffffffff1663ffffffff1681526020019081526020015f206004015f9054906101000a900473ffffffffffffffffffffffffffffffffffffffff169250600190505b6125dc565b5f805b60015f8963ffffffff1663ffffffff1681526020019081526020015f20600601805490508163ffffffff1610156124755760015f8963ffffffff1663ffffffff1681526020019081526020015f206005015f9054906101000a900473ffffffffffffffffffffffffffffffffffffffff1673ffffffffffffffffffffffffffffffffffffffff1660025f60015f8c63ffffffff1663ffffffff1681526020019081526020015f206006018463ffffffff16815481106123e9576123e8613bb6565b5b905f5260205f20015f015f9054906101000a900463ffffffff1663ffffffff1663ffffffff1681526020019081526020015f206004015f9054906101000a900473ffffffffffffffffffffffffffffffffffffffff1673ffffffffffffffffffffffffffffffffffffffff160361246257809150612475565b808061246d90613931565b915050612327565b506001805f8963ffffffff1663ffffffff1681526020019081526020015f20600601805490506124a59190613c70565b8163ffffffff160361252e5760015f8863ffffffff1663ffffffff1681526020019081526020015f206007015f9054906101000a900463ffffffff16925060025f8463ffffffff1663ffffffff1681526020019081526020015f206004015f9054906101000a900473ffffffffffffffffffffffffffffffffffffffff169350600291506125da565b5f60018261253c9190613ca3565b905060015f8963ffffffff1663ffffffff1681526020019081526020015f206006018163ffffffff168154811061257657612575613bb6565b5b905f5260205f20015f015f9054906101000a900463ffffffff16935060025f8563ffffffff1663ffffffff1681526020019081526020015f206004015f9054906101000a900473ffffffffffffffffffffffffffffffffffffffff16945060019250505b505b5f80600881819054906101000a900463ffffffff16809291906125fe90613931565b91906101000a81548163ffffffff021916908363ffffffff16021790555090508660035f8363ffffffff1663ffffffff1681526020019081526020015f205f015f6101000a81548163ffffffff021916908363ffffffff1602179055508360035f8363ffffffff1663ffffffff1681526020019081526020015f205f01600c6101000a81548173ffffffffffffffffffffffffffffffffffffffff021916908373ffffffffffffffffffffffffffffffffffffffff1602179055508260035f8363ffffffff1663ffffffff1681526020019081526020015f205f0160046101000a81548163ffffffff021916908363ffffffff1602179055504260035f8363ffffffff1663ffffffff1681526020019081526020015f205f0160086101000a81548163ffffffff021916908363ffffffff16021790555060045f8863ffffffff1663ffffffff1681526020019081526020015f2084908060018154018082558091505060019003905f5260205f20015f9091909190916101000a81548173ffffffffffffffffffffffffffffffffffffffff021916908373ffffffffffffffffffffffffffffffffffffffff1602179055508360015f8963ffffffff1663ffffffff1681526020019081526020015f206005015f6101000a81548173ffffffffffffffffffffffffffffffffffffffff021916908373ffffffffffffffffffffffffffffffffffffffff1602179055508160015f8963ffffffff1663ffffffff1681526020019081526020015f2060070160046101000a81548163ffffffff021916908363ffffffff1602179055507fa5470ac012c6e9dc500e62b1d3de0de58db49b3ab7cfebbfb126d9abd854199b8760405161287c9190612eac565b60405180910390a1600195505050505050919050565b5f60049054906101000a900463ffffffff1681565b6040518061016001604052805f63ffffffff1681526020016060815260200160608152602001606081526020015f73ffffffffffffffffffffffffffffffffffffffff1681526020015f73ffffffffffffffffffffffffffffffffffffffff1681526020015f63ffffffff1681526020015f63ffffffff168152602001606081526020015f63ffffffff1681526020015f63ffffffff1681525090565b5f604051905090565b5f80fd5b5f80fd5b5f63ffffffff82169050919050565b61296d81612955565b8114612977575f80fd5b50565b5f8135905061298881612964565b92915050565b5f819050919050565b6129a08161298e565b81146129aa575f80fd5b50565b5f813590506129bb81612997565b92915050565b5f80604083850312156129d7576129d661294d565b5b5f6129e48582860161297a565b92505060206129f5858286016129ad565b9150509250929050565b5f73ffffffffffffffffffffffffffffffffffffffff82169050919050565b5f612a28826129ff565b9050919050565b612a3881612a1e565b82525050565b5f602082019050612a515f830184612a2f565b92915050565b5f60208284031215612a6c57612a6b61294d565b5b5f612a798482850161297a565b91505092915050565b5f81519050919050565b5f82825260208201905092915050565b5f5b83811015612ab9578082015181840152602081019050612a9e565b5f8484015250505050565b5f601f19601f8301169050919050565b5f612ade82612a82565b612ae88185612a8c565b9350612af8818560208601612a9c565b612b0181612ac4565b840191505092915050565b5f6060820190508181035f830152612b248186612ad4565b9050612b336020830185612a2f565b8181036040830152612b458184612ad4565b9050949350505050565b5f80fd5b5f80fd5b7f4e487b71000000000000000000000000000000000000000000000000000000005f52604160045260245ffd5b612b8d82612ac4565b810181811067ffffffffffffffff82111715612bac57612bab612b57565b5b80604052505050565b5f612bbe612944565b9050612bca8282612b84565b919050565b5f67ffffffffffffffff821115612be957612be8612b57565b5b612bf282612ac4565b9050602081019050919050565b828183375f83830152505050565b5f612c1f612c1a84612bcf565b612bb5565b905082815260208101848484011115612c3b57612c3a612b53565b5b612c46848285612bff565b509392505050565b5f82601f830112612c6257612c61612b4f565b5b8135612c72848260208601612c0d565b91505092915050565b5f67ffffffffffffffff821115612c9557612c94612b57565b5b602082029050602081019050919050565b5f80fd5b5f80fd5b5f60408284031215612cc357612cc2612caa565b5b612ccd6040612bb5565b90505f612cdc8482850161297a565b5f830152506020612cef8482850161297a565b60208301525092915050565b5f612d0d612d0884612c7b565b612bb5565b90508083825260208201905060408402830185811115612d3057612d2f612ca6565b5b835b81811015612d595780612d458882612cae565b845260208401935050604081019050612d32565b5050509392505050565b5f82601f830112612d7757612d76612b4f565b5b8135612d87848260208601612cfb565b91505092915050565b5f805f805f805f60e0888a031215612dab57612daa61294d565b5b5f612db88a828b0161297a565b975050602088013567ffffffffffffffff811115612dd957612dd8612951565b5b612de58a828b01612c4e565b965050604088013567ffffffffffffffff811115612e0657612e05612951565b5b612e128a828b01612c4e565b955050606088013567ffffffffffffffff811115612e3357612e32612951565b5b612e3f8a828b01612c4e565b9450506080612e508a828b0161297a565b93505060a0612e618a828b0161297a565b92505060c088013567ffffffffffffffff811115612e8257612e81612951565b5b612e8e8a828b01612d63565b91505092959891949750929550565b612ea681612955565b82525050565b5f602082019050612ebf5f830184612e9d565b92915050565b5f81519050919050565b5f82825260208201905092915050565b5f819050602082019050919050565b612ef781612955565b82525050565b5f612f088383612eee565b60208301905092915050565b5f602082019050919050565b5f612f2a82612ec5565b612f348185612ecf565b9350612f3f83612edf565b805f5b83811015612f6f578151612f568882612efd565b9750612f6183612f14565b925050600181019050612f42565b5085935050505092915050565b5f6020820190508181035f830152612f948184612f20565b905092915050565b5f805f8060808587031215612fb457612fb361294d565b5b5f612fc18782880161297a565b945050602085013567ffffffffffffffff811115612fe257612fe1612951565b5b612fee87828801612c4e565b935050604085013567ffffffffffffffff81111561300f5761300e612951565b5b61301b87828801612c4e565b925050606085013567ffffffffffffffff81111561303c5761303b612951565b5b61304887828801612c4e565b91505092959194509250565b5f8115159050919050565b61306881613054565b82525050565b5f6020820190506130815f83018461305f565b92915050565b5f60a08201905061309a5f830188612e9d565b81810360208301526130ac8187612ad4565b905081810360408301526130c08186612ad4565b905081810360608301526130d48185612ad4565b90506130e36080830184612a2f565b9695505050505050565b5f6080820190506131005f830187612e9d565b61310d6020830186612e9d565b61311a6040830185612e9d565b6131276060830184612a2f565b95945050505050565b5f81519050919050565b5f82825260208201905092915050565b5f819050602082019050919050565b5f82825260208201905092915050565b5f61317382612a82565b61317d8185613159565b935061318d818560208601612a9c565b61319681612ac4565b840191505092915050565b6131aa81612a1e565b82525050565b5f81519050919050565b5f82825260208201905092915050565b5f819050602082019050919050565b604082015f8201516131ed5f850182612eee565b5060208201516132006020850182612eee565b50505050565b5f61321183836131d9565b60408301905092915050565b5f602082019050919050565b5f613233826131b0565b61323d81856131ba565b9350613248836131ca565b805f5b8381101561327857815161325f8882613206565b975061326a8361321d565b92505060018101905061324b565b5085935050505092915050565b5f61016083015f83015161329b5f860182612eee565b50602083015184820360208601526132b38282613169565b915050604083015184820360408601526132cd8282613169565b915050606083015184820360608601526132e78282613169565b91505060808301516132fc60808601826131a1565b5060a083015161330f60a08601826131a1565b5060c083015161332260c0860182612eee565b5060e083015161333560e0860182612eee565b5061010083015184820361010086015261334f8282613229565b915050610120830151613366610120860182612eee565b5061014083015161337b610140860182612eee565b508091505092915050565b5f6133918383613285565b905092915050565b5f602082019050919050565b5f6133af82613130565b6133b9818561313a565b9350836020820285016133cb8561314a565b805f5b8581101561340657848403895281516133e78582613386565b94506133f283613399565b925060208a019950506001810190506133ce565b50829750879550505050505092915050565b5f6020820190508181035f83015261343081846133a5565b905092915050565b5f61016083015f83015161344e5f860182612eee565b50602083015184820360208601526134668282613169565b915050604083015184820360408601526134808282613169565b9150506060830151848203606086015261349a8282613169565b91505060808301516134af60808601826131a1565b5060a08301516134c260a08601826131a1565b5060c08301516134d560c0860182612eee565b5060e08301516134e860e0860182612eee565b506101008301518482036101008601526135028282613229565b915050610120830151613519610120860182612eee565b5061014083015161352e610140860182612eee565b508091505092915050565b5f6020820190508181035f8301526135518184613438565b905092915050565b5f6101408201905061356d5f83018d612e9d565b818103602083015261357f818c612ad4565b90508181036040830152613593818b612ad4565b905081810360608301526135a7818a612ad4565b90506135b66080830189612a2f565b6135c360a0830188612a2f565b6135d060c0830187612e9d565b6135dd60e0830186612e9d565b6135eb610100830185612e9d565b6135f9610120830184612e9d565b9b9a5050505050505050505050565b5f81519050919050565b5f82825260208201905092915050565b5f819050602082019050919050565b5f61363c83836131a1565b60208301905092915050565b5f602082019050919050565b5f61365e82613608565b6136688185613612565b935061367383613622565b805f5b838110156136a357815161368a8882613631565b975061369583613648565b925050600181019050613676565b5085935050505092915050565b5f6020820190508181035f8301526136c88184613654565b905092915050565b5f6080820190506136e35f830187612e9d565b6136f06020830186612e9d565b6136fd6040830185612a2f565b61370a6060830184612e9d565b95945050505050565b61371c81612a1e565b8114613726575f80fd5b50565b5f8135905061373781613713565b92915050565b5f805f80608085870312156137555761375461294d565b5b5f85013567ffffffffffffffff81111561377257613771612951565b5b61377e87828801612c4e565b945050602085013567ffffffffffffffff81111561379f5761379e612951565b5b6137ab87828801612c4e565b93505060406137bc87828801613729565b925050606085013567ffffffffffffffff8111156137dd576137dc612951565b5b6137e987828801612c4e565b91505092959194509250565b7f4e487b71000000000000000000000000000000000000000000000000000000005f52602260045260245ffd5b5f600282049050600182168061383957607f821691505b60208210810361384c5761384b6137f5565b5b50919050565b5f81905092915050565b5f819050815f5260205f209050919050565b5f815461387a81613822565b6138848186613852565b9450600182165f811461389e57600181146138b3576138e5565b60ff19831686528115158202860193506138e5565b6138bc8561385c565b5f5b838110156138dd578154818901526001820191506020810190506138be565b838801955050505b50505092915050565b5f6138f9828461386e565b915081905092915050565b7f4e487b71000000000000000000000000000000000000000000000000000000005f52601160045260245ffd5b5f61393b82612955565b915063ffffffff820361395157613950613904565b5b600182019050919050565b5f6020601f8301049050919050565b5f82821b905092915050565b5f600883026139a67fffffffffffffffffffffffffffffffffffffffffffffffffffffffffffffffff8261396b565b6139b0868361396b565b95508019841693508086168417925050509392505050565b5f819050919050565b5f6139eb6139e66139e18461298e565b6139c8565b61298e565b9050919050565b5f819050919050565b613a04836139d1565b613a18613a10826139f2565b848454613977565b825550505050565b5f90565b613a2c613a20565b613a378184846139fb565b505050565b5b81811015613a5a57613a4f5f82613a24565b600181019050613a3d565b5050565b601f821115613a9f57613a708161385c565b613a798461395c565b81016020851015613a88578190505b613a9c613a948561395c565b830182613a3c565b50505b505050565b5f82821c905092915050565b5f613abf5f1984600802613aa4565b1980831691505092915050565b5f613ad78383613ab0565b9150826002028217905092915050565b613af082612a82565b67ffffffffffffffff811115613b0957613b08612b57565b5b613b138254613822565b613b1e828285613a5e565b5f60209050601f831160018114613b4f575f8415613b3d578287015190505b613b478582613acc565b865550613bae565b601f198416613b5d8661385c565b5f5b82811015613b8457848901518255600182019150602085019450602081019050613b5f565b86831015613ba15784890151613b9d601f891682613ab0565b8355505b6001600288020188555050505b505050505050565b7f4e487b71000000000000000000000000000000000000000000000000000000005f52603260045260245ffd5b5f613bed8261298e565b91507fffffffffffffffffffffffffffffffffffffffffffffffffffffffffffffffff8203613c1f57613c1e613904565b5b600182019050919050565b5f613c3482612a82565b613c3e8185613852565b9350613c4e818560208601612a9c565b80840191505092915050565b5f613c658284613c2a565b915081905092915050565b5f613c7a8261298e565b9150613c858361298e565b9250828203905081811115613c9d57613c9c613904565b5b92915050565b5f613cad82612955565b9150613cb883612955565b9250828201905063ffffffff811115613cd457613cd3613904565b5b9291505056fea264697066735822122023470309ddc8808f80056b5af00f3207153772ea7e90dd9cd4c67f8e05b68d9d64736f6c63430008140033",
  "immutableReferences": {},
  "source": "// SPDX-License-Identifier: UNLICENSED\npragma solidity ^0.8.20;\n\ncontract supplyChain {\n    uint32 public product_id = 0; // Product ID\n    uint32 public participant_id = 0; // Participant ID\n    uint32 public owner_id = 0; // Ownership ID\n    struct product {\n        uint32 id;\n        string modelNumber;\n        string partNumber;\n        string serialNumber;\n        address manufacturer;\n        address productOwner;\n        uint32 cost;\n        uint32 mfgTimeStamp;\n        ProductSuppliers[] suppliers;\n        uint32 consumer;\n        uint32 state; // 0 - not started, 1 - in_process, 2 - done\n    }\n\n    mapping(uint32 => product) public products;\n    struct participant {\n        uint32 id;\n        string userName;\n        string password;\n        string participantType;\n        address participantAddress;\n    }\n    struct ProductSuppliers {\n        uint32 id;\n        uint32 cost;\n    }\n\n    mapping(uint32 => participant) public participants;\n    struct ownership {\n        uint32 productId;\n        uint32 ownerId;\n        uint32 trxTimeStamp;\n        address productOwner;\n    }\n    mapping(uint32 => ownership) public ownerships; // ownerships by ownership ID (owner_id)\n    mapping(uint32 => address[]) public productTrack; // ownerships by Product ID (product_id) / Movement track for a product\n    mapping(uint32 => uint32[]) public createByManufacturer;\n\n    event TransferOwnership(uint32 productId);\n    event Participant(uint32 userId);\n    event Product(uint32 productId);\n\n    function addParticipant(\n        string memory _name,\n        string memory _pass,\n        address _pAdd,\n        string memory _pType\n    ) public returns (uint32) {\n        uint32 userId = participant_id++;\n        participants[userId].id = userId;\n        participants[userId].userName = _name;\n        participants[userId].password = _pass;\n        participants[userId].participantAddress = _pAdd;\n        participants[userId].participantType = _pType;\n\n        emit Participant(userId);\n        return userId;\n    }\n\n    function getParticipant(\n        uint32 _participant_id\n    ) public view returns (string memory, address, string memory) {\n        return (\n            participants[_participant_id].userName,\n            participants[_participant_id].participantAddress,\n            participants[_participant_id].participantType\n        );\n    }\n\n    function addProduct(\n        uint32 _ownerId,\n        string memory _modelNumber,\n        string memory _partNumber,\n        string memory _serialNumber,\n        uint32 _productCost,\n        uint32 _consumer,\n        ProductSuppliers[] memory _supplierList\n    ) public returns (uint32) {\n        if (\n            keccak256(\n                abi.encodePacked(participants[_ownerId].participantType)\n            ) == keccak256(\"Manufacturer\")\n        ) {\n            uint32 productId = product_id++;\n            products[productId].id = productId;\n            products[productId].modelNumber = _modelNumber;\n            products[productId].partNumber = _partNumber;\n            products[productId].serialNumber = _serialNumber;\n            products[productId].cost = _productCost;\n            products[productId].manufacturer = participants[_ownerId]\n                .participantAddress;\n            products[productId].productOwner = participants[_ownerId]\n                .participantAddress;\n            products[productId].mfgTimeStamp = uint32(block.timestamp);\n            for (uint256 i = 0; i < _supplierList.length; i++) {\n                products[productId].suppliers.push(_supplierList[i]);\n            }\n            products[productId].consumer = _consumer;\n            products[productId].state = 0;\n\n            createByManufacturer[_ownerId].push(productId);\n            productTrack[productId].push(\n                participants[_ownerId].participantAddress\n            );\n\n            emit Product(productId);\n            return productId;\n        }\n        return 0;\n    }\n\n    modifier onlyOwner(uint32 _productId) {\n        // require(msg.sender == products[_productId].productOwner, \"\");\n        _;\n    }\n\n    function getProductsForManufacturer(\n        uint32 _manufacturer_id\n    ) public view returns (uint32[] memory) {\n        return (createByManufacturer[_manufacturer_id]);\n    }\n\n    function getProduct(\n        uint32 _productId\n    ) public view returns (product memory) {\n        return (products[_productId]);\n    }\n\n    function getProductsBySupplier(\n        uint32 _supplierId\n    ) public view returns (product[] memory) {\n        uint32 count = 0;\n        for (uint32 i = 0; i <= product_id; i++) {\n            if (\n                products[i].productOwner ==\n                participants[_supplierId].participantAddress\n            ) {\n                count++;\n            }\n        }\n\n        product[] memory productsOwned = new product[](count);\n        count = 0;\n\n        for (uint32 i = 0; i <= product_id; i++) {\n            if (\n                products[i].productOwner ==\n                participants[_supplierId].participantAddress\n            ) {\n                productsOwned[count] = products[i];\n                count++;\n            }\n        }\n\n        return productsOwned;\n    }\n\n    function moveProductToNextStage(\n        uint32 _prodId\n    ) public onlyOwner(_prodId) returns (bool) {\n        address nextOwner;\n        uint32 nextId;\n        uint32 newState;\n\n        if (products[_prodId].productOwner == products[_prodId].manufacturer) {\n            if (products[_prodId].suppliers.length == 0) {\n                nextId = products[_prodId].consumer;\n                nextOwner = participants[nextId].participantAddress;\n                newState = 2;\n            } else {\n                nextId = products[_prodId].suppliers[0].id;\n                nextOwner = participants[nextId].participantAddress;\n                newState = 1;\n            }\n        } else {\n            uint32 currentOwnerIndex = 0;\n\n            for (uint32 i = 0; i < products[_prodId].suppliers.length; i++) {\n                if (\n                    participants[products[_prodId].suppliers[i].id]\n                        .participantAddress == products[_prodId].productOwner\n                ) {\n                    currentOwnerIndex = i;\n                    break;\n                }\n            }\n            if (currentOwnerIndex == products[_prodId].suppliers.length - 1) {\n                nextId = products[_prodId].consumer;\n                nextOwner = participants[nextId].participantAddress;\n                newState = 2;\n            } else {\n                uint32 nextSupplierIndex = currentOwnerIndex + 1;\n\n                nextId = products[_prodId].suppliers[nextSupplierIndex].id;\n                nextOwner = participants[nextId].participantAddress;\n                newState = 1;\n            }\n        }\n\n        uint32 ownership_id = owner_id++;\n        ownerships[ownership_id].productId = _prodId;\n        ownerships[ownership_id].productOwner = nextOwner;\n        ownerships[ownership_id].ownerId = nextId;\n        ownerships[ownership_id].trxTimeStamp = uint32(block.timestamp);\n        productTrack[_prodId].push(nextOwner);\n\n        products[_prodId].productOwner = nextOwner;\n        products[_prodId].state = newState;\n\n        emit TransferOwnership(_prodId);\n\n        return true;\n    }\n\n    // function newOwner(\n    //     uint32 _user1Id,\n    //     uint32 _user2Id,\n    //     uint32 _prodId\n    // ) public onlyOwner(_prodId) returns (bool) {\n    //     participant memory p1 = participants[_user1Id];\n    //     participant memory p2 = participants[_user2Id];\n    //     uint32 ownership_id = owner_id++;\n\n    //     if (\n    //         keccak256(abi.encodePacked(p1.participantType)) ==\n    //         keccak256(\"Manufacturer\") &&\n    //         keccak256(abi.encodePacked(p2.participantType)) ==\n    //         keccak256(\"Supplier\")\n    //     ) {\n    //         ownerships[ownership_id].productId = _prodId;\n    //         ownerships[ownership_id].productOwner = p2.participantAddress;\n    //         ownerships[ownership_id].ownerId = _user2Id;\n    //         ownerships[ownership_id].trxTimeStamp = uint32(block.timestamp);\n    //         products[_prodId].productOwner = p2.participantAddress;\n    //         productTrack[_prodId].push(ownership_id);\n    //         emit TransferOwnership(_prodId);\n    //         return (true);\n    //     } else if (\n    //         keccak256(abi.encodePacked(p1.participantType)) ==\n    //         keccak256(\"Supplier\") &&\n    //         keccak256(abi.encodePacked(p2.participantType)) ==\n    //         keccak256(\"Supplier\")\n    //     ) {\n    //         ownerships[ownership_id].productId = _prodId;\n    //         ownerships[ownership_id].productOwner = p2.participantAddress;\n    //         ownerships[ownership_id].ownerId = _user2Id;\n    //         ownerships[ownership_id].trxTimeStamp = uint32(block.timestamp);\n    //         products[_prodId].productOwner = p2.participantAddress;\n    //         productTrack[_prodId].push(ownership_id);\n    //         emit TransferOwnership(_prodId);\n    //         return (true);\n    //     } else if (\n    //         keccak256(abi.encodePacked(p1.participantType)) ==\n    //         keccak256(\"Supplier\") &&\n    //         keccak256(abi.encodePacked(p2.participantType)) ==\n    //         keccak256(\"Consumer\")\n    //     ) {\n    //         ownerships[ownership_id].productId = _prodId;\n    //         ownerships[ownership_id].productOwner = p2.participantAddress;\n    //         ownerships[ownership_id].ownerId = _user2Id;\n    //         ownerships[ownership_id].trxTimeStamp = uint32(block.timestamp);\n    //         products[_prodId].productOwner = p2.participantAddress;\n    //         productTrack[_prodId].push(ownership_id);\n    //         emit TransferOwnership(_prodId);\n    //         return (true);\n    //     }\n    //     return (false);\n    // }\n\n    function getProvenance(\n        uint32 _prodId\n    ) external view returns (address[] memory) {\n        return productTrack[_prodId];\n    }\n\n    function getOwnership(\n        uint32 _regId\n    ) public view returns (uint32, uint32, address, uint32) {\n        ownership memory r = ownerships[_regId];\n        return (r.productId, r.ownerId, r.productOwner, r.trxTimeStamp);\n    }\n\n    function authenticateParticipant(\n        uint32 _uid,\n        string memory _uname,\n        string memory _pass,\n        string memory _utype\n    ) public view returns (bool) {\n        if (\n            keccak256(abi.encodePacked(participants[_uid].participantType)) ==\n            keccak256(abi.encodePacked(_utype))\n        ) {\n            if (\n                keccak256(abi.encodePacked(participants[_uid].userName)) ==\n                keccak256(abi.encodePacked(_uname))\n            ) {\n                if (\n                    keccak256(abi.encodePacked(participants[_uid].password)) ==\n                    keccak256(abi.encodePacked(_pass))\n                ) {\n                    return (true);\n                }\n            }\n        }\n        return (false);\n    }\n}\n",
  "sourcePath": "/Users/sidharth/Desktop/blockchainProject/contracts/supplyChain.sol",
  "compiler": {
    "name": "solc",
    "version": "0.8.20+commit.a1b79de6.Emscripten.clang"
  },
  "schemaVersion": "3.4.16",
  "updatedAt": "2023-12-24T18:27:07.523Z",
  "networkType": "ethereum",
  "devdoc": {
    "kind": "dev",
    "methods": {},
    "version": 1
  },
  "userdoc": {
    "kind": "user",
    "methods": {},
    "version": 1
  }
}